{
  "_format": "hh-sol-artifact-1",
  "contractName": "MyOFT",
  "sourceName": "src/OFT.sol",
  "abi": [
    {
      "inputs": [
        {
          "internalType": "string",
          "name": "_name",
          "type": "string"
        },
        {
          "internalType": "string",
          "name": "_symbol",
          "type": "string"
        },
        {
          "internalType": "address",
          "name": "_lzEndpoint",
          "type": "address"
        },
        {
          "internalType": "address",
          "name": "_delegate",
          "type": "address"
        },
        {
          "internalType": "uint8",
          "name": "_underlyingDecimals",
          "type": "uint8"
        }
      ],
      "stateMutability": "nonpayable",
      "type": "constructor"
    },
    {
      "inputs": [
        {
          "internalType": "address",
          "name": "spender",
          "type": "address"
        },
        {
          "internalType": "uint256",
          "name": "allowance",
          "type": "uint256"
        },
        {
          "internalType": "uint256",
          "name": "needed",
          "type": "uint256"
        }
      ],
      "name": "ERC20InsufficientAllowance",
      "type": "error"
    },
    {
      "inputs": [
        {
          "internalType": "address",
          "name": "sender",
          "type": "address"
        },
        {
          "internalType": "uint256",
          "name": "balance",
          "type": "uint256"
        },
        {
          "internalType": "uint256",
          "name": "needed",
          "type": "uint256"
        }
      ],
      "name": "ERC20InsufficientBalance",
      "type": "error"
    },
    {
      "inputs": [
        {
          "internalType": "address",
          "name": "approver",
          "type": "address"
        }
      ],
      "name": "ERC20InvalidApprover",
      "type": "error"
    },
    {
      "inputs": [
        {
          "internalType": "address",
          "name": "receiver",
          "type": "address"
        }
      ],
      "name": "ERC20InvalidReceiver",
      "type": "error"
    },
    {
      "inputs": [
        {
          "internalType": "address",
          "name": "sender",
          "type": "address"
        }
      ],
      "name": "ERC20InvalidSender",
      "type": "error"
    },
    {
      "inputs": [
        {
          "internalType": "address",
          "name": "spender",
          "type": "address"
        }
      ],
      "name": "ERC20InvalidSpender",
      "type": "error"
    },
    {
      "inputs": [],
      "name": "InvalidDelegate",
      "type": "error"
    },
    {
      "inputs": [],
      "name": "InvalidEndpointCall",
      "type": "error"
    },
    {
      "inputs": [],
      "name": "InvalidLocalDecimals",
      "type": "error"
    },
    {
      "inputs": [
        {
          "internalType": "bytes",
          "name": "options",
          "type": "bytes"
        }
      ],
      "name": "InvalidOptions",
      "type": "error"
    },
    {
      "inputs": [],
      "name": "LzTokenUnavailable",
      "type": "error"
    },
    {
      "inputs": [
        {
          "internalType": "uint32",
          "name": "eid",
          "type": "uint32"
        }
      ],
      "name": "NoPeer",
      "type": "error"
    },
    {
      "inputs": [
        {
          "internalType": "uint256",
          "name": "msgValue",
          "type": "uint256"
        }
      ],
      "name": "NotEnoughNative",
      "type": "error"
    },
    {
      "inputs": [
        {
          "internalType": "address",
          "name": "addr",
          "type": "address"
        }
      ],
      "name": "OnlyEndpoint",
      "type": "error"
    },
    {
      "inputs": [
        {
          "internalType": "uint32",
          "name": "eid",
          "type": "uint32"
        },
        {
          "internalType": "bytes32",
          "name": "sender",
          "type": "bytes32"
        }
      ],
      "name": "OnlyPeer",
      "type": "error"
    },
    {
      "inputs": [],
      "name": "OnlySelf",
      "type": "error"
    },
    {
      "inputs": [
        {
          "internalType": "address",
          "name": "owner",
          "type": "address"
        }
      ],
      "name": "OwnableInvalidOwner",
      "type": "error"
    },
    {
      "inputs": [
        {
          "internalType": "address",
          "name": "account",
          "type": "address"
        }
      ],
      "name": "OwnableUnauthorizedAccount",
      "type": "error"
    },
    {
      "inputs": [
        {
          "internalType": "address",
          "name": "token",
          "type": "address"
        }
      ],
      "name": "SafeERC20FailedOperation",
      "type": "error"
    },
    {
      "inputs": [
        {
          "internalType": "bytes",
          "name": "result",
          "type": "bytes"
        }
      ],
      "name": "SimulationResult",
      "type": "error"
    },
    {
      "inputs": [
        {
          "internalType": "uint256",
          "name": "amountLD",
          "type": "uint256"
        },
        {
          "internalType": "uint256",
          "name": "minAmountLD",
          "type": "uint256"
        }
      ],
      "name": "SlippageExceeded",
      "type": "error"
    },
    {
      "anonymous": false,
      "inputs": [
        {
          "indexed": true,
          "internalType": "address",
          "name": "owner",
          "type": "address"
        },
        {
          "indexed": true,
          "internalType": "address",
          "name": "spender",
          "type": "address"
        },
        {
          "indexed": false,
          "internalType": "uint256",
          "name": "value",
          "type": "uint256"
        }
      ],
      "name": "Approval",
      "type": "event"
    },
    {
      "anonymous": false,
      "inputs": [
        {
          "components": [
            {
              "internalType": "uint32",
              "name": "eid",
              "type": "uint32"
            },
            {
              "internalType": "uint16",
              "name": "msgType",
              "type": "uint16"
            },
            {
              "internalType": "bytes",
              "name": "options",
              "type": "bytes"
            }
          ],
          "indexed": false,
          "internalType": "struct EnforcedOptionParam[]",
          "name": "_enforcedOptions",
          "type": "tuple[]"
        }
      ],
      "name": "EnforcedOptionSet",
      "type": "event"
    },
    {
      "anonymous": false,
      "inputs": [
        {
          "indexed": false,
          "internalType": "address",
          "name": "inspector",
          "type": "address"
        }
      ],
      "name": "MsgInspectorSet",
      "type": "event"
    },
    {
      "anonymous": false,
      "inputs": [
        {
          "indexed": true,
          "internalType": "bytes32",
          "name": "guid",
          "type": "bytes32"
        },
        {
          "indexed": false,
          "internalType": "uint32",
          "name": "srcEid",
          "type": "uint32"
        },
        {
          "indexed": true,
          "internalType": "address",
          "name": "toAddress",
          "type": "address"
        },
        {
          "indexed": false,
          "internalType": "uint256",
          "name": "amountReceivedLD",
          "type": "uint256"
        }
      ],
      "name": "OFTReceived",
      "type": "event"
    },
    {
      "anonymous": false,
      "inputs": [
        {
          "indexed": true,
          "internalType": "bytes32",
          "name": "guid",
          "type": "bytes32"
        },
        {
          "indexed": false,
          "internalType": "uint32",
          "name": "dstEid",
          "type": "uint32"
        },
        {
          "indexed": true,
          "internalType": "address",
          "name": "fromAddress",
          "type": "address"
        },
        {
          "indexed": false,
          "internalType": "uint256",
          "name": "amountSentLD",
          "type": "uint256"
        },
        {
          "indexed": false,
          "internalType": "uint256",
          "name": "amountReceivedLD",
          "type": "uint256"
        }
      ],
      "name": "OFTSent",
      "type": "event"
    },
    {
      "anonymous": false,
      "inputs": [
        {
          "indexed": true,
          "internalType": "address",
          "name": "previousOwner",
          "type": "address"
        },
        {
          "indexed": true,
          "internalType": "address",
          "name": "newOwner",
          "type": "address"
        }
      ],
      "name": "OwnershipTransferred",
      "type": "event"
    },
    {
      "anonymous": false,
      "inputs": [
        {
          "indexed": false,
          "internalType": "uint32",
          "name": "eid",
          "type": "uint32"
        },
        {
          "indexed": false,
          "internalType": "bytes32",
          "name": "peer",
          "type": "bytes32"
        }
      ],
      "name": "PeerSet",
      "type": "event"
    },
    {
      "anonymous": false,
      "inputs": [
        {
          "indexed": false,
          "internalType": "address",
          "name": "preCrimeAddress",
          "type": "address"
        }
      ],
      "name": "PreCrimeSet",
      "type": "event"
    },
    {
      "anonymous": false,
      "inputs": [
        {
          "indexed": true,
          "internalType": "address",
          "name": "from",
          "type": "address"
        },
        {
          "indexed": true,
          "internalType": "address",
          "name": "to",
          "type": "address"
        },
        {
          "indexed": false,
          "internalType": "uint256",
          "name": "value",
          "type": "uint256"
        }
      ],
      "name": "Transfer",
      "type": "event"
    },
    {
      "inputs": [],
      "name": "SEND",
      "outputs": [
        {
          "internalType": "uint16",
          "name": "",
          "type": "uint16"
        }
      ],
      "stateMutability": "view",
      "type": "function"
    },
    {
      "inputs": [],
      "name": "SEND_AND_CALL",
      "outputs": [
        {
          "internalType": "uint16",
          "name": "",
          "type": "uint16"
        }
      ],
      "stateMutability": "view",
      "type": "function"
    },
    {
      "inputs": [
        {
          "components": [
            {
              "internalType": "uint32",
              "name": "srcEid",
              "type": "uint32"
            },
            {
              "internalType": "bytes32",
              "name": "sender",
              "type": "bytes32"
            },
            {
              "internalType": "uint64",
              "name": "nonce",
              "type": "uint64"
            }
          ],
          "internalType": "struct Origin",
          "name": "origin",
          "type": "tuple"
        }
      ],
      "name": "allowInitializePath",
      "outputs": [
        {
          "internalType": "bool",
          "name": "",
          "type": "bool"
        }
      ],
      "stateMutability": "view",
      "type": "function"
    },
    {
      "inputs": [
        {
          "internalType": "address",
          "name": "owner",
          "type": "address"
        },
        {
          "internalType": "address",
          "name": "spender",
          "type": "address"
        }
      ],
      "name": "allowance",
      "outputs": [
        {
          "internalType": "uint256",
          "name": "",
          "type": "uint256"
        }
      ],
      "stateMutability": "view",
      "type": "function"
    },
    {
      "inputs": [],
      "name": "approvalRequired",
      "outputs": [
        {
          "internalType": "bool",
          "name": "",
          "type": "bool"
        }
      ],
      "stateMutability": "pure",
      "type": "function"
    },
    {
      "inputs": [
        {
          "internalType": "address",
          "name": "spender",
          "type": "address"
        },
        {
          "internalType": "uint256",
          "name": "value",
          "type": "uint256"
        }
      ],
      "name": "approve",
      "outputs": [
        {
          "internalType": "bool",
          "name": "",
          "type": "bool"
        }
      ],
      "stateMutability": "nonpayable",
      "type": "function"
    },
    {
      "inputs": [
        {
          "internalType": "address",
          "name": "account",
          "type": "address"
        }
      ],
      "name": "balanceOf",
      "outputs": [
        {
          "internalType": "uint256",
          "name": "",
          "type": "uint256"
        }
      ],
      "stateMutability": "view",
      "type": "function"
    },
    {
      "inputs": [
        {
          "internalType": "uint32",
          "name": "_eid",
          "type": "uint32"
        },
        {
          "internalType": "uint16",
          "name": "_msgType",
          "type": "uint16"
        },
        {
          "internalType": "bytes",
          "name": "_extraOptions",
          "type": "bytes"
        }
      ],
      "name": "combineOptions",
      "outputs": [
        {
          "internalType": "bytes",
          "name": "",
          "type": "bytes"
        }
      ],
      "stateMutability": "view",
      "type": "function"
    },
    {
      "inputs": [],
      "name": "decimalConversionRate",
      "outputs": [
        {
          "internalType": "uint256",
          "name": "",
          "type": "uint256"
        }
      ],
      "stateMutability": "view",
      "type": "function"
    },
    {
      "inputs": [],
      "name": "decimals",
      "outputs": [
        {
          "internalType": "uint8",
          "name": "",
          "type": "uint8"
        }
      ],
      "stateMutability": "view",
      "type": "function"
    },
    {
      "inputs": [],
      "name": "endpoint",
      "outputs": [
        {
          "internalType": "contract ILayerZeroEndpointV2",
          "name": "",
          "type": "address"
        }
      ],
      "stateMutability": "view",
      "type": "function"
    },
    {
      "inputs": [
        {
          "internalType": "uint32",
          "name": "eid",
          "type": "uint32"
        },
        {
          "internalType": "uint16",
          "name": "msgType",
          "type": "uint16"
        }
      ],
      "name": "enforcedOptions",
      "outputs": [
        {
          "internalType": "bytes",
          "name": "enforcedOption",
          "type": "bytes"
        }
      ],
      "stateMutability": "view",
      "type": "function"
    },
    {
      "inputs": [
        {
          "components": [
            {
              "internalType": "uint32",
              "name": "srcEid",
              "type": "uint32"
            },
            {
              "internalType": "bytes32",
              "name": "sender",
              "type": "bytes32"
            },
            {
              "internalType": "uint64",
              "name": "nonce",
              "type": "uint64"
            }
          ],
          "internalType": "struct Origin",
          "name": "",
          "type": "tuple"
        },
        {
          "internalType": "bytes",
          "name": "",
          "type": "bytes"
        },
        {
          "internalType": "address",
          "name": "_sender",
          "type": "address"
        }
      ],
      "name": "isComposeMsgSender",
      "outputs": [
        {
          "internalType": "bool",
          "name": "",
          "type": "bool"
        }
      ],
      "stateMutability": "view",
      "type": "function"
    },
    {
      "inputs": [
        {
          "internalType": "uint32",
          "name": "_eid",
          "type": "uint32"
        },
        {
          "internalType": "bytes32",
          "name": "_peer",
          "type": "bytes32"
        }
      ],
      "name": "isPeer",
      "outputs": [
        {
          "internalType": "bool",
          "name": "",
          "type": "bool"
        }
      ],
      "stateMutability": "view",
      "type": "function"
    },
    {
      "inputs": [
        {
          "components": [
            {
              "internalType": "uint32",
              "name": "srcEid",
              "type": "uint32"
            },
            {
              "internalType": "bytes32",
              "name": "sender",
              "type": "bytes32"
            },
            {
              "internalType": "uint64",
              "name": "nonce",
              "type": "uint64"
            }
          ],
          "internalType": "struct Origin",
          "name": "_origin",
          "type": "tuple"
        },
        {
          "internalType": "bytes32",
          "name": "_guid",
          "type": "bytes32"
        },
        {
          "internalType": "bytes",
          "name": "_message",
          "type": "bytes"
        },
        {
          "internalType": "address",
          "name": "_executor",
          "type": "address"
        },
        {
          "internalType": "bytes",
          "name": "_extraData",
          "type": "bytes"
        }
      ],
      "name": "lzReceive",
      "outputs": [],
      "stateMutability": "payable",
      "type": "function"
    },
    {
      "inputs": [
        {
          "components": [
            {
              "components": [
                {
                  "internalType": "uint32",
                  "name": "srcEid",
                  "type": "uint32"
                },
                {
                  "internalType": "bytes32",
                  "name": "sender",
                  "type": "bytes32"
                },
                {
                  "internalType": "uint64",
                  "name": "nonce",
                  "type": "uint64"
                }
              ],
              "internalType": "struct Origin",
              "name": "origin",
              "type": "tuple"
            },
            {
              "internalType": "uint32",
              "name": "dstEid",
              "type": "uint32"
            },
            {
              "internalType": "address",
              "name": "receiver",
              "type": "address"
            },
            {
              "internalType": "bytes32",
              "name": "guid",
              "type": "bytes32"
            },
            {
              "internalType": "uint256",
              "name": "value",
              "type": "uint256"
            },
            {
              "internalType": "address",
              "name": "executor",
              "type": "address"
            },
            {
              "internalType": "bytes",
              "name": "message",
              "type": "bytes"
            },
            {
              "internalType": "bytes",
              "name": "extraData",
              "type": "bytes"
            }
          ],
          "internalType": "struct InboundPacket[]",
          "name": "_packets",
          "type": "tuple[]"
        }
      ],
      "name": "lzReceiveAndRevert",
      "outputs": [],
      "stateMutability": "payable",
      "type": "function"
    },
    {
      "inputs": [
        {
          "components": [
            {
              "internalType": "uint32",
              "name": "srcEid",
              "type": "uint32"
            },
            {
              "internalType": "bytes32",
              "name": "sender",
              "type": "bytes32"
            },
            {
              "internalType": "uint64",
              "name": "nonce",
              "type": "uint64"
            }
          ],
          "internalType": "struct Origin",
          "name": "_origin",
          "type": "tuple"
        },
        {
          "internalType": "bytes32",
          "name": "_guid",
          "type": "bytes32"
        },
        {
          "internalType": "bytes",
          "name": "_message",
          "type": "bytes"
        },
        {
          "internalType": "address",
          "name": "_executor",
          "type": "address"
        },
        {
          "internalType": "bytes",
          "name": "_extraData",
          "type": "bytes"
        }
      ],
      "name": "lzReceiveSimulate",
      "outputs": [],
      "stateMutability": "payable",
      "type": "function"
    },
    {
      "inputs": [],
      "name": "msgInspector",
      "outputs": [
        {
          "internalType": "address",
          "name": "",
          "type": "address"
        }
      ],
      "stateMutability": "view",
      "type": "function"
    },
    {
      "inputs": [],
      "name": "name",
      "outputs": [
        {
          "internalType": "string",
          "name": "",
          "type": "string"
        }
      ],
      "stateMutability": "view",
      "type": "function"
    },
    {
      "inputs": [
        {
          "internalType": "uint32",
          "name": "",
          "type": "uint32"
        },
        {
          "internalType": "bytes32",
          "name": "",
          "type": "bytes32"
        }
      ],
      "name": "nextNonce",
      "outputs": [
        {
          "internalType": "uint64",
          "name": "nonce",
          "type": "uint64"
        }
      ],
      "stateMutability": "view",
      "type": "function"
    },
    {
      "inputs": [],
      "name": "oApp",
      "outputs": [
        {
          "internalType": "address",
          "name": "",
          "type": "address"
        }
      ],
      "stateMutability": "view",
      "type": "function"
    },
    {
      "inputs": [],
      "name": "oAppVersion",
      "outputs": [
        {
          "internalType": "uint64",
          "name": "senderVersion",
          "type": "uint64"
        },
        {
          "internalType": "uint64",
          "name": "receiverVersion",
          "type": "uint64"
        }
      ],
      "stateMutability": "pure",
      "type": "function"
    },
    {
      "inputs": [],
      "name": "oftVersion",
      "outputs": [
        {
          "internalType": "bytes4",
          "name": "interfaceId",
          "type": "bytes4"
        },
        {
          "internalType": "uint64",
          "name": "version",
          "type": "uint64"
        }
      ],
      "stateMutability": "pure",
      "type": "function"
    },
    {
      "inputs": [],
      "name": "owner",
      "outputs": [
        {
          "internalType": "address",
          "name": "",
          "type": "address"
        }
      ],
      "stateMutability": "view",
      "type": "function"
    },
    {
      "inputs": [
        {
          "internalType": "uint32",
          "name": "eid",
          "type": "uint32"
        }
      ],
      "name": "peers",
      "outputs": [
        {
          "internalType": "bytes32",
          "name": "peer",
          "type": "bytes32"
        }
      ],
      "stateMutability": "view",
      "type": "function"
    },
    {
      "inputs": [],
      "name": "preCrime",
      "outputs": [
        {
          "internalType": "address",
          "name": "",
          "type": "address"
        }
      ],
      "stateMutability": "view",
      "type": "function"
    },
    {
      "inputs": [
        {
          "components": [
            {
              "internalType": "uint32",
              "name": "dstEid",
              "type": "uint32"
            },
            {
              "internalType": "bytes32",
              "name": "to",
              "type": "bytes32"
            },
            {
              "internalType": "uint256",
              "name": "amountLD",
              "type": "uint256"
            },
            {
              "internalType": "uint256",
              "name": "minAmountLD",
              "type": "uint256"
            },
            {
              "internalType": "bytes",
              "name": "extraOptions",
              "type": "bytes"
            },
            {
              "internalType": "bytes",
              "name": "composeMsg",
              "type": "bytes"
            },
            {
              "internalType": "bytes",
              "name": "oftCmd",
              "type": "bytes"
            }
          ],
          "internalType": "struct SendParam",
          "name": "_sendParam",
          "type": "tuple"
        }
      ],
      "name": "quoteOFT",
      "outputs": [
        {
          "components": [
            {
              "internalType": "uint256",
              "name": "minAmountLD",
              "type": "uint256"
            },
            {
              "internalType": "uint256",
              "name": "maxAmountLD",
              "type": "uint256"
            }
          ],
          "internalType": "struct OFTLimit",
          "name": "oftLimit",
          "type": "tuple"
        },
        {
          "components": [
            {
              "internalType": "int256",
              "name": "feeAmountLD",
              "type": "int256"
            },
            {
              "internalType": "string",
              "name": "description",
              "type": "string"
            }
          ],
          "internalType": "struct OFTFeeDetail[]",
          "name": "oftFeeDetails",
          "type": "tuple[]"
        },
        {
          "components": [
            {
              "internalType": "uint256",
              "name": "amountSentLD",
              "type": "uint256"
            },
            {
              "internalType": "uint256",
              "name": "amountReceivedLD",
              "type": "uint256"
            }
          ],
          "internalType": "struct OFTReceipt",
          "name": "oftReceipt",
          "type": "tuple"
        }
      ],
      "stateMutability": "view",
      "type": "function"
    },
    {
      "inputs": [
        {
          "components": [
            {
              "internalType": "uint32",
              "name": "dstEid",
              "type": "uint32"
            },
            {
              "internalType": "bytes32",
              "name": "to",
              "type": "bytes32"
            },
            {
              "internalType": "uint256",
              "name": "amountLD",
              "type": "uint256"
            },
            {
              "internalType": "uint256",
              "name": "minAmountLD",
              "type": "uint256"
            },
            {
              "internalType": "bytes",
              "name": "extraOptions",
              "type": "bytes"
            },
            {
              "internalType": "bytes",
              "name": "composeMsg",
              "type": "bytes"
            },
            {
              "internalType": "bytes",
              "name": "oftCmd",
              "type": "bytes"
            }
          ],
          "internalType": "struct SendParam",
          "name": "_sendParam",
          "type": "tuple"
        },
        {
          "internalType": "bool",
          "name": "_payInLzToken",
          "type": "bool"
        }
      ],
      "name": "quoteSend",
      "outputs": [
        {
          "components": [
            {
              "internalType": "uint256",
              "name": "nativeFee",
              "type": "uint256"
            },
            {
              "internalType": "uint256",
              "name": "lzTokenFee",
              "type": "uint256"
            }
          ],
          "internalType": "struct MessagingFee",
          "name": "msgFee",
          "type": "tuple"
        }
      ],
      "stateMutability": "view",
      "type": "function"
    },
    {
      "inputs": [],
      "name": "renounceOwnership",
      "outputs": [],
      "stateMutability": "nonpayable",
      "type": "function"
    },
    {
      "inputs": [
        {
          "components": [
            {
              "internalType": "uint32",
              "name": "dstEid",
              "type": "uint32"
            },
            {
              "internalType": "bytes32",
              "name": "to",
              "type": "bytes32"
            },
            {
              "internalType": "uint256",
              "name": "amountLD",
              "type": "uint256"
            },
            {
              "internalType": "uint256",
              "name": "minAmountLD",
              "type": "uint256"
            },
            {
              "internalType": "bytes",
              "name": "extraOptions",
              "type": "bytes"
            },
            {
              "internalType": "bytes",
              "name": "composeMsg",
              "type": "bytes"
            },
            {
              "internalType": "bytes",
              "name": "oftCmd",
              "type": "bytes"
            }
          ],
          "internalType": "struct SendParam",
          "name": "_sendParam",
          "type": "tuple"
        },
        {
          "components": [
            {
              "internalType": "uint256",
              "name": "nativeFee",
              "type": "uint256"
            },
            {
              "internalType": "uint256",
              "name": "lzTokenFee",
              "type": "uint256"
            }
          ],
          "internalType": "struct MessagingFee",
          "name": "_fee",
          "type": "tuple"
        },
        {
          "internalType": "address",
          "name": "_refundAddress",
          "type": "address"
        }
      ],
      "name": "send",
      "outputs": [
        {
          "components": [
            {
              "internalType": "bytes32",
              "name": "guid",
              "type": "bytes32"
            },
            {
              "internalType": "uint64",
              "name": "nonce",
              "type": "uint64"
            },
            {
              "components": [
                {
                  "internalType": "uint256",
                  "name": "nativeFee",
                  "type": "uint256"
                },
                {
                  "internalType": "uint256",
                  "name": "lzTokenFee",
                  "type": "uint256"
                }
              ],
              "internalType": "struct MessagingFee",
              "name": "fee",
              "type": "tuple"
            }
          ],
          "internalType": "struct MessagingReceipt",
          "name": "msgReceipt",
          "type": "tuple"
        },
        {
          "components": [
            {
              "internalType": "uint256",
              "name": "amountSentLD",
              "type": "uint256"
            },
            {
              "internalType": "uint256",
              "name": "amountReceivedLD",
              "type": "uint256"
            }
          ],
          "internalType": "struct OFTReceipt",
          "name": "oftReceipt",
          "type": "tuple"
        }
      ],
      "stateMutability": "payable",
      "type": "function"
    },
    {
      "inputs": [
        {
          "internalType": "address",
          "name": "_delegate",
          "type": "address"
        }
      ],
      "name": "setDelegate",
      "outputs": [],
      "stateMutability": "nonpayable",
      "type": "function"
    },
    {
      "inputs": [
        {
          "components": [
            {
              "internalType": "uint32",
              "name": "eid",
              "type": "uint32"
            },
            {
              "internalType": "uint16",
              "name": "msgType",
              "type": "uint16"
            },
            {
              "internalType": "bytes",
              "name": "options",
              "type": "bytes"
            }
          ],
          "internalType": "struct EnforcedOptionParam[]",
          "name": "_enforcedOptions",
          "type": "tuple[]"
        }
      ],
      "name": "setEnforcedOptions",
      "outputs": [],
      "stateMutability": "nonpayable",
      "type": "function"
    },
    {
      "inputs": [
        {
          "internalType": "address",
          "name": "_msgInspector",
          "type": "address"
        }
      ],
      "name": "setMsgInspector",
      "outputs": [],
      "stateMutability": "nonpayable",
      "type": "function"
    },
    {
      "inputs": [
        {
          "internalType": "uint32",
          "name": "_eid",
          "type": "uint32"
        },
        {
          "internalType": "bytes32",
          "name": "_peer",
          "type": "bytes32"
        }
      ],
      "name": "setPeer",
      "outputs": [],
      "stateMutability": "nonpayable",
      "type": "function"
    },
    {
      "inputs": [
        {
          "internalType": "address",
          "name": "_preCrime",
          "type": "address"
        }
      ],
      "name": "setPreCrime",
      "outputs": [],
      "stateMutability": "nonpayable",
      "type": "function"
    },
    {
      "inputs": [],
      "name": "sharedDecimals",
      "outputs": [
        {
          "internalType": "uint8",
          "name": "",
          "type": "uint8"
        }
      ],
      "stateMutability": "view",
      "type": "function"
    },
    {
      "inputs": [],
      "name": "symbol",
      "outputs": [
        {
          "internalType": "string",
          "name": "",
          "type": "string"
        }
      ],
      "stateMutability": "view",
      "type": "function"
    },
    {
      "inputs": [],
      "name": "token",
      "outputs": [
        {
          "internalType": "address",
          "name": "",
          "type": "address"
        }
      ],
      "stateMutability": "view",
      "type": "function"
    },
    {
      "inputs": [],
      "name": "totalSupply",
      "outputs": [
        {
          "internalType": "uint256",
          "name": "",
          "type": "uint256"
        }
      ],
      "stateMutability": "view",
      "type": "function"
    },
    {
      "inputs": [
        {
          "internalType": "address",
          "name": "to",
          "type": "address"
        },
        {
          "internalType": "uint256",
          "name": "value",
          "type": "uint256"
        }
      ],
      "name": "transfer",
      "outputs": [
        {
          "internalType": "bool",
          "name": "",
          "type": "bool"
        }
      ],
      "stateMutability": "nonpayable",
      "type": "function"
    },
    {
      "inputs": [
        {
          "internalType": "address",
          "name": "from",
          "type": "address"
        },
        {
          "internalType": "address",
          "name": "to",
          "type": "address"
        },
        {
          "internalType": "uint256",
          "name": "value",
          "type": "uint256"
        }
      ],
      "name": "transferFrom",
      "outputs": [
        {
          "internalType": "bool",
          "name": "",
          "type": "bool"
        }
      ],
      "stateMutability": "nonpayable",
      "type": "function"
    },
    {
      "inputs": [
        {
          "internalType": "address",
          "name": "newOwner",
          "type": "address"
        }
      ],
      "name": "transferOwnership",
      "outputs": [],
      "stateMutability": "nonpayable",
      "type": "function"
    },
    {
      "inputs": [],
      "name": "underlyingDecimals",
      "outputs": [
        {
          "internalType": "uint8",
          "name": "",
          "type": "uint8"
        }
      ],
      "stateMutability": "view",
      "type": "function"
    }
  ],
  "bytecode": "0x60c06040523480156200001157600080fd5b50604051620037da380380620037da83398101604081905262000034916200030b565b84848484838362000047600a5460ff1690565b8484818181818e6001600160a01b0381166200007d57604051631e4fbdf760e01b81526000600482015260240160405180910390fd5b6200008881620001c2565b506001600160a01b038083166080528116620000b757604051632d618d8160e21b815260040160405180910390fd5b60805160405163ca5eb5e160e01b81526001600160a01b0383811660048301529091169063ca5eb5e190602401600060405180830381600087803b158015620000ff57600080fd5b505af115801562000114573d6000803e3d6000fd5b50505050505050506200012c6200021260201b60201c565b60ff168360ff16101562000153576040516301e9714b60e41b815260040160405180910390fd5b6200015d62000212565b620001699084620003cc565b6200017690600a620004eb565b60a05250600891506200018c9050838262000594565b5060096200019b828262000594565b5050600a805460ff191660ff97909716969096179095555062000660975050505050505050565b600080546001600160a01b038381166001600160a01b0319831681178455604051919092169283917f8be0079c531659141344cd1fd0a4f28419497f9722a3daafe3b4186f6b6457e09190a35050565b600062000221600a5460ff1690565b905090565b634e487b7160e01b600052604160045260246000fd5b600082601f8301126200024e57600080fd5b81516001600160401b03808211156200026b576200026b62000226565b604051601f8301601f19908116603f0116810190828211818310171562000296576200029662000226565b8160405283815260209250866020858801011115620002b457600080fd5b600091505b83821015620002d85785820183015181830184015290820190620002b9565b6000602085830101528094505050505092915050565b80516001600160a01b03811681146200030657600080fd5b919050565b600080600080600060a086880312156200032457600080fd5b85516001600160401b03808211156200033c57600080fd5b6200034a89838a016200023c565b965060208801519150808211156200036157600080fd5b5062000370888289016200023c565b9450506200038160408701620002ee565b92506200039160608701620002ee565b9150608086015160ff81168114620003a857600080fd5b809150509295509295909350565b634e487b7160e01b600052601160045260246000fd5b60ff8281168282160390811115620003e857620003e8620003b6565b92915050565b600181815b808511156200042f578160001904821115620004135762000413620003b6565b808516156200042157918102915b93841c9390800290620003f3565b509250929050565b6000826200044857506001620003e8565b816200045757506000620003e8565b81600181146200047057600281146200047b576200049b565b6001915050620003e8565b60ff8411156200048f576200048f620003b6565b50506001821b620003e8565b5060208310610133831016604e8410600b8410161715620004c0575081810a620003e8565b620004cc8383620003ee565b8060001904821115620004e357620004e3620003b6565b029392505050565b6000620004fc60ff84168362000437565b9392505050565b600181811c908216806200051857607f821691505b6020821081036200053957634e487b7160e01b600052602260045260246000fd5b50919050565b601f8211156200058f576000816000526020600020601f850160051c810160208610156200056a5750805b601f850160051c820191505b818110156200058b5782815560010162000576565b5050505b505050565b81516001600160401b03811115620005b057620005b062000226565b620005c881620005c1845462000503565b846200053f565b602080601f831160018114620006005760008415620005e75750858301515b600019600386901b1c1916600185901b1785556200058b565b600085815260208120601f198616915b82811015620006315788860151825594840194600190910190840162000610565b5085821015620006505787850151600019600388901b60f8161c191681555b5050505050600190811b01905550565b60805160a05161310e620006cc6000396000818161064c01528181611ae201528181611b570152611d5b01526000818161050a01528181610a7b015281816110de01528181611355015281816116c001528181611e5301528181611fc3015261207a015261310e6000f3fe60806040526004361061025c5760003560e01c8063715018a611610144578063bb0b6a53116100b6578063d045a0dc1161007a578063d045a0dc14610783578063d424388514610796578063dd62ed3e146107b6578063f2fde38b146107fc578063fc0c546a1461048e578063ff7bd03d1461081c57600080fd5b8063bb0b6a53146106e2578063bc70b3541461070f578063bd815db01461072f578063c7c7f5b314610742578063ca5eb5e11461076357600080fd5b806395d89b411161010857806395d89b4114610625578063963efcaa1461063a5780639f68b9641461066e578063a9059cbb14610682578063b731ea0a146106a2578063b98bd070146106c257600080fd5b8063715018a6146105825780637d25a05e1461059757806382413eac146105d2578063857749b0146105f25780638da5cb5b1461060757600080fd5b806323b872dd116101dd57806352ae2879116101a157806352ae28791461048e5780635535d461146104a15780635a0dfe4d146104c15780635e280f11146104f85780636fc1b31e1461052c57806370a082311461054c57600080fd5b806323b872dd146103dd57806325a760c2146103fd578063313ce567146104295780633400288b146104415780633b6f743b1461046157600080fd5b8063134d4f2511610224578063134d4f2514610338578063156a0d0f1461036057806317442b701461038757806318160ddd146103a95780631f5e1334146103c857600080fd5b806306fdde0314610261578063095ea7b31461028c5780630d35b415146102bc578063111ecdad146102eb57806313137d6514610323575b600080fd5b34801561026d57600080fd5b5061027661083c565b60405161028391906121f2565b60405180910390f35b34801561029857600080fd5b506102ac6102a736600461221a565b6108ce565b6040519015158152602001610283565b3480156102c857600080fd5b506102dc6102d736600461225e565b6108e8565b60405161028393929190612292565b3480156102f757600080fd5b5060045461030b906001600160a01b031681565b6040516001600160a01b039091168152602001610283565b610336610331366004612385565b610a79565b005b34801561034457600080fd5b5061034d600281565b60405161ffff9091168152602001610283565b34801561036c57600080fd5b506040805162b9270b60e21b81526001602082015201610283565b34801561039357600080fd5b5060408051600181526002602082015201610283565b3480156103b557600080fd5b506007545b604051908152602001610283565b3480156103d457600080fd5b5061034d600181565b3480156103e957600080fd5b506102ac6103f8366004612424565b610b39565b34801561040957600080fd5b50600a546104179060ff1681565b60405160ff9091168152602001610283565b34801561043557600080fd5b50600a5460ff16610417565b34801561044d57600080fd5b5061033661045c36600461247e565b610b5f565b34801561046d57600080fd5b5061048161047c3660046124a8565b610b75565b60405161028391906124f9565b34801561049a57600080fd5b503061030b565b3480156104ad57600080fd5b506102766104bc366004612522565b610bdc565b3480156104cd57600080fd5b506102ac6104dc36600461247e565b63ffffffff919091166000908152600160205260409020541490565b34801561050457600080fd5b5061030b7f000000000000000000000000000000000000000000000000000000000000000081565b34801561053857600080fd5b50610336610547366004612555565b610c81565b34801561055857600080fd5b506103ba610567366004612555565b6001600160a01b031660009081526005602052604090205490565b34801561058e57600080fd5b50610336610cde565b3480156105a357600080fd5b506105ba6105b236600461247e565b600092915050565b6040516001600160401b039091168152602001610283565b3480156105de57600080fd5b506102ac6105ed366004612572565b610cf2565b3480156105fe57600080fd5b50610417610d07565b34801561061357600080fd5b506000546001600160a01b031661030b565b34801561063157600080fd5b50610276610d1a565b34801561064657600080fd5b506103ba7f000000000000000000000000000000000000000000000000000000000000000081565b34801561067a57600080fd5b5060006102ac565b34801561068e57600080fd5b506102ac61069d36600461221a565b610d29565b3480156106ae57600080fd5b5060025461030b906001600160a01b031681565b3480156106ce57600080fd5b506103366106dd36600461261c565b610d37565b3480156106ee57600080fd5b506103ba6106fd36600461265d565b60016020526000908152604090205481565b34801561071b57600080fd5b5061027661072a366004612678565b610d51565b61033661073d36600461261c565b610ef9565b6107556107503660046126d8565b611083565b604051610283929190612745565b34801561076f57600080fd5b5061033661077e366004612555565b6110b7565b610336610791366004612385565b61113d565b3480156107a257600080fd5b506103366107b1366004612555565b61116c565b3480156107c257600080fd5b506103ba6107d1366004612797565b6001600160a01b03918216600090815260066020908152604080832093909416825291909152205490565b34801561080857600080fd5b50610336610817366004612555565b6111c2565b34801561082857600080fd5b506102ac6108373660046127c5565b611200565b60606008805461084b906127e1565b80601f0160208091040260200160405190810160405280929190818152602001828054610877906127e1565b80156108c45780601f10610899576101008083540402835291602001916108c4565b820191906000526020600020905b8154815290600101906020018083116108a757829003601f168201915b5050505050905090565b6000336108dc818585611236565b60019150505b92915050565b6040805180820190915260008082526020820152606061091b604051806040016040528060008152602001600081525090565b600080306001600160a01b031663fc0c546a6040518163ffffffff1660e01b8152600401602060405180830381865afa15801561095c573d6000803e3d6000fd5b505050506040513d601f19601f820116820180604052508101906109809190612815565b6001600160a01b03166318160ddd6040518163ffffffff1660e01b8152600401602060405180830381865afa1580156109bd573d6000803e3d6000fd5b505050506040513d601f19601f820116820180604052508101906109e19190612832565b60408051808201825284815260208082018490528251600080825291810190935290975091925090610a36565b604080518082019091526000815260606020820152815260200190600190039081610a0e5790505b509350600080610a5b604089013560608a0135610a5660208c018c61265d565b611248565b60408051808201909152918252602082015296989597505050505050565b7f00000000000000000000000000000000000000000000000000000000000000006001600160a01b03163314610ac9576040516391ac5e4f60e01b81523360048201526024015b60405180910390fd5b60208701803590610ae390610ade908a61265d565b611284565b14610b2157610af5602088018861265d565b60405163309afaf360e21b815263ffffffff909116600482015260208801356024820152604401610ac0565b610b30878787878787876112c0565b50505050505050565b600033610b47858285611427565b610b528585856114a6565b60019150505b9392505050565b610b67611505565b610b718282611532565b5050565b60408051808201909152600080825260208201526000610ba560408501356060860135610a56602088018861265d565b915050600080610bb58684611587565b9092509050610bd2610bca602088018861265d565b8383886116aa565b9695505050505050565b600360209081526000928352604080842090915290825290208054610c00906127e1565b80601f0160208091040260200160405190810160405280929190818152602001828054610c2c906127e1565b8015610c795780601f10610c4e57610100808354040283529160200191610c79565b820191906000526020600020905b815481529060010190602001808311610c5c57829003601f168201915b505050505081565b610c89611505565b600480546001600160a01b0319166001600160a01b0383169081179091556040519081527ff0be4f1e87349231d80c36b33f9e8639658eeaf474014dee15a3e6a4d4414197906020015b60405180910390a150565b610ce6611505565b610cf0600061178b565b565b6001600160a01b03811630145b949350505050565b6000610d15600a5460ff1690565b905090565b60606009805461084b906127e1565b6000336108dc8185856114a6565b610d3f611505565b610b71610d4c8284612902565b6117db565b63ffffffff8416600090815260036020908152604080832061ffff87168452909152812080546060929190610d85906127e1565b80601f0160208091040260200160405190810160405280929190818152602001828054610db1906127e1565b8015610dfe5780601f10610dd357610100808354040283529160200191610dfe565b820191906000526020600020905b815481529060010190602001808311610de157829003601f168201915b505050505090508051600003610e4e5783838080601f016020809104026020016040519081016040528093929190818152602001838380828437600092019190915250929450610cff9350505050565b6000839003610e5e579050610cff565b60028310610edc57610ea584848080601f0160208091040260200160405190810160405280939291908181526020018383808284376000920191909152506118e292505050565b80610eb38460028188612a17565b604051602001610ec593929190612a41565b604051602081830303815290604052915050610cff565b8383604051639a6d49cd60e01b8152600401610ac0929190612a92565b60005b818110156110025736838383818110610f1757610f17612aa6565b9050602002810190610f299190612abc565b9050610f5c610f3b602083018361265d565b602083013563ffffffff919091166000908152600160205260409020541490565b610f665750610ffa565b3063d045a0dc60c08301358360a0810135610f85610100830183612add565b610f96610100890160e08a01612555565b610fa46101208a018a612add565b6040518963ffffffff1660e01b8152600401610fc69796959493929190612b38565b6000604051808303818588803b158015610fdf57600080fd5b505af1158015610ff3573d6000803e3d6000fd5b5050505050505b600101610efc565b50336001600160a01b0316638e9e70996040518163ffffffff1660e01b8152600401600060405180830381865afa158015611041573d6000803e3d6000fd5b505050506040513d6000823e601f3d908101601f191682016040526110699190810190612bbe565b604051638351eea760e01b8152600401610ac091906121f2565b61108b61215b565b60408051808201909152600080825260208201526110aa85858561190e565b915091505b935093915050565b6110bf611505565b60405163ca5eb5e160e01b81526001600160a01b0382811660048301527f0000000000000000000000000000000000000000000000000000000000000000169063ca5eb5e190602401600060405180830381600087803b15801561112257600080fd5b505af1158015611136573d6000803e3d6000fd5b5050505050565b33301461115d5760405163029a949d60e31b815260040160405180910390fd5b610b3087878787878787610b21565b611174611505565b600280546001600160a01b0319166001600160a01b0383169081179091556040519081527fd48d879cef83a1c0bdda516f27b13ddb1b3f8bbac1c9e1511bb2a659c242776090602001610cd3565b6111ca611505565b6001600160a01b0381166111f457604051631e4fbdf760e01b815260006004820152602401610ac0565b6111fd8161178b565b50565b6000602082018035906001908390611218908661265d565b63ffffffff1681526020810191909152604001600020541492915050565b6112438383836001611a09565b505050565b60008061125485611ade565b9150819050838110156110af576040516371c4efed60e01b81526004810182905260248101859052604401610ac0565b63ffffffff8116600090815260016020526040812054806108e25760405163f6ff4fb760e01b815263ffffffff84166004820152602401610ac0565b60006112d26112cf8787611b15565b90565b905060006112fe826112ec6112e78a8a611b2d565b611b50565b6112f960208d018d61265d565b611b85565b905060288611156113c557600061133b61131e60608c0160408d01612c2b565b61132b60208d018d61265d565b846113368c8c611bad565b611bf8565b604051633e5ac80960e11b81529091506001600160a01b037f00000000000000000000000000000000000000000000000000000000000000001690637cb59012906113919086908d906000908790600401612c48565b600060405180830381600087803b1580156113ab57600080fd5b505af11580156113bf573d6000803e3d6000fd5b50505050505b6001600160a01b038216887fefed6d3500546b29533b128a29e3a94d70788727f0507505ac12eaf2e578fd9c6113fe60208d018d61265d565b6040805163ffffffff9092168252602082018690520160405180910390a3505050505050505050565b6001600160a01b038381166000908152600660209081526040808320938616835292905220546000198110156114a0578181101561149157604051637dc7a0d960e11b81526001600160a01b03841660048201526024810182905260448101839052606401610ac0565b6114a084848484036000611a09565b50505050565b6001600160a01b0383166114d057604051634b637e8f60e11b815260006004820152602401610ac0565b6001600160a01b0382166114fa5760405163ec442f0560e01b815260006004820152602401610ac0565b611243838383611c2a565b6000546001600160a01b03163314610cf05760405163118cdaa760e01b8152336004820152602401610ac0565b63ffffffff8216600081815260016020908152604091829020849055815192835282018390527f238399d427b947898edb290f5ff0f9109849b1c3ba196a42e35f00c50a54b98b910160405180910390a15050565b60608060006115e4856020013561159d86611d54565b6115aa60a0890189612add565b8080601f016020809104026020016040519081016040528093929190818152602001838380828437600092019190915250611d8092505050565b90935090506000816115f75760016115fa565b60025b905061161a61160c602088018861265d565b8261072a60808a018a612add565b6004549093506001600160a01b031680156116a05760405163043a78eb60e01b81526001600160a01b0382169063043a78eb9061165d9088908890600401612c79565b602060405180830381865afa15801561167a573d6000803e3d6000fd5b505050506040513d601f19601f8201168201806040525081019061169e9190612c9e565b505b5050509250929050565b60408051808201909152600080825260208201527f00000000000000000000000000000000000000000000000000000000000000006001600160a01b031663ddc28c586040518060a001604052808863ffffffff16815260200161170d89611284565b8152602001878152602001868152602001851515815250306040518363ffffffff1660e01b8152600401611742929190612cbb565b6040805180830381865afa15801561175e573d6000803e3d6000fd5b505050506040513d601f19601f820116820180604052508101906117829190612d64565b95945050505050565b600080546001600160a01b038381166001600160a01b0319831681178455604051919092169283917f8be0079c531659141344cd1fd0a4f28419497f9722a3daafe3b4186f6b6457e09190a35050565b60005b81518110156118b25761180d8282815181106117fc576117fc612aa6565b6020026020010151604001516118e2565b81818151811061181f5761181f612aa6565b6020026020010151604001516003600084848151811061184157611841612aa6565b60200260200101516000015163ffffffff1663ffffffff168152602001908152602001600020600084848151811061187b5761187b612aa6565b60200260200101516020015161ffff1661ffff16815260200190815260200160002090816118a99190612dd0565b506001016117de565b507fbe4864a8e820971c0247f5992e2da559595f7bf076a21cb5928d443d2a13b67481604051610cd39190612e8f565b600281015161ffff8116600314610b715781604051639a6d49cd60e01b8152600401610ac091906121f2565b61191661215b565b604080518082019091526000808252602082015260008061194d33604089013560608a013561194860208c018c61265d565b611dfa565b9150915060008061195e8984611587565b909250905061198a61197360208b018b61265d565b8383611984368d90038d018d612f1a565b8b611e20565b60408051808201909152858152602080820186905282519298509096503391907f85496b760a4b7f8d66384b9df21b381f5d1b1e79f229a47aaf4c232edc2fe59a906119d8908d018d61265d565b6040805163ffffffff909216825260208201899052810187905260600160405180910390a350505050935093915050565b6001600160a01b038416611a335760405163e602df0560e01b815260006004820152602401610ac0565b6001600160a01b038316611a5d57604051634a1406b160e11b815260006004820152602401610ac0565b6001600160a01b03808516600090815260066020908152604080832093871683529290522082905580156114a057826001600160a01b0316846001600160a01b03167f8c5be1e5ebec7d5bd14f71427d1e84f3dd0314c0f7b2291e5b200ac8c7c3b92584604051611ad091815260200190565b60405180910390a350505050565b60007f0000000000000000000000000000000000000000000000000000000000000000611b0b8184612f62565b6108e29190612f84565b6000611b246020828486612a17565b610b5891612f9b565b6000611b3d602860208486612a17565b611b4691612fb9565b60c01c9392505050565b60006108e27f00000000000000000000000000000000000000000000000000000000000000006001600160401b038416612f84565b60006001600160a01b038416611b9b5761dead93505b611ba58484611f2b565b509092915050565b6060611bbc8260288186612a17565b8080601f016020809104026020016040519081016040528093929190818152602001838380828437600092019190915250929695505050505050565b606084848484604051602001611c119493929190612fe9565b6040516020818303038152906040529050949350505050565b6001600160a01b038316611c55578060076000828254611c4a9190613038565b90915550611cc79050565b6001600160a01b03831660009081526005602052604090205481811015611ca85760405163391434e360e21b81526001600160a01b03851660048201526024810182905260448101839052606401610ac0565b6001600160a01b03841660009081526005602052604090209082900390555b6001600160a01b038216611ce357600780548290039055611d02565b6001600160a01b03821660009081526005602052604090208054820190555b816001600160a01b0316836001600160a01b03167fddf252ad1be2c89b69c2b068fc378daa952ba7f163c4a11628f55a4df523b3ef83604051611d4791815260200190565b60405180910390a3505050565b60006108e27f000000000000000000000000000000000000000000000000000000000000000083612f62565b8051606090151580611dc9578484604051602001611db592919091825260c01b6001600160c01b031916602082015260280190565b604051602081830303815290604052611df0565b84843385604051602001611de0949392919061304b565b6040516020818303038152906040525b9150935093915050565b600080611e08858585611248565b9092509050611e178683611f61565b94509492505050565b611e2861215b565b6000611e378460000151611f97565b602085015190915015611e5157611e518460200151611fbf565b7f00000000000000000000000000000000000000000000000000000000000000006001600160a01b0316632637a450826040518060a001604052808b63ffffffff168152602001611ea18c611284565b81526020018a815260200189815260200160008960200151111515815250866040518463ffffffff1660e01b8152600401611edd929190612cbb565b60806040518083038185885af1158015611efb573d6000803e3d6000fd5b50505050506040513d601f19601f82011682018060405250810190611f20919061308e565b979650505050505050565b6001600160a01b038216611f555760405163ec442f0560e01b815260006004820152602401610ac0565b610b7160008383611c2a565b6001600160a01b038216611f8b57604051634b637e8f60e11b815260006004820152602401610ac0565b610b7182600083611c2a565b6000813414611fbb576040516304fb820960e51b8152346004820152602401610ac0565b5090565b60007f00000000000000000000000000000000000000000000000000000000000000006001600160a01b031663e4fe1d946040518163ffffffff1660e01b8152600401602060405180830381865afa15801561201f573d6000803e3d6000fd5b505050506040513d601f19601f820116820180604052508101906120439190612815565b90506001600160a01b03811661206c576040516329b99a9560e11b815260040160405180910390fd5b6040805133602482018190527f00000000000000000000000000000000000000000000000000000000000000006001600160a01b0381811660448501526064808501889052855180860390910181526084909401909452602080840180516001600160e01b03166323b872dd60e01b1781528451610b719688169589936114a093889360009283929091839182885af18061210d576040513d6000823e3d81fd5b50506000513d91508115612125578060011415612132565b6001600160a01b0384163b155b156114a057604051635274afe760e01b81526001600160a01b0385166004820152602401610ac0565b60405180606001604052806000801916815260200160006001600160401b0316815260200161219d604051806040016040528060008152602001600081525090565b905290565b60005b838110156121bd5781810151838201526020016121a5565b50506000910152565b600081518084526121de8160208601602086016121a2565b601f01601f19169290920160200192915050565b602081526000610b5860208301846121c6565b6001600160a01b03811681146111fd57600080fd5b6000806040838503121561222d57600080fd5b823561223881612205565b946020939093013593505050565b600060e0828403121561225857600080fd5b50919050565b60006020828403121561227057600080fd5b81356001600160401b0381111561228657600080fd5b610cff84828501612246565b8351815260208085015190820152600060a08201604060a0604085015281865180845260c08601915060c08160051b8701019350602080890160005b8381101561230d5788870360bf190185528151805188528301518388018790526122fa878901826121c6565b97505093820193908201906001016122ce565b50508751606088015250505060208501516080850152509050610cff565b60006060828403121561225857600080fd5b60008083601f84011261234f57600080fd5b5081356001600160401b0381111561236657600080fd5b60208301915083602082850101111561237e57600080fd5b9250929050565b600080600080600080600060e0888a0312156123a057600080fd5b6123aa898961232b565b96506060880135955060808801356001600160401b03808211156123cd57600080fd5b6123d98b838c0161233d565b909750955060a08a013591506123ee82612205565b90935060c0890135908082111561240457600080fd5b506124118a828b0161233d565b989b979a50959850939692959293505050565b60008060006060848603121561243957600080fd5b833561244481612205565b9250602084013561245481612205565b929592945050506040919091013590565b803563ffffffff8116811461247957600080fd5b919050565b6000806040838503121561249157600080fd5b61223883612465565b80151581146111fd57600080fd5b600080604083850312156124bb57600080fd5b82356001600160401b038111156124d157600080fd5b6124dd85828601612246565b92505060208301356124ee8161249a565b809150509250929050565b8151815260208083015190820152604081016108e2565b803561ffff8116811461247957600080fd5b6000806040838503121561253557600080fd5b61253e83612465565b915061254c60208401612510565b90509250929050565b60006020828403121561256757600080fd5b8135610b5881612205565b60008060008060a0858703121561258857600080fd5b612592868661232b565b935060608501356001600160401b038111156125ad57600080fd5b6125b98782880161233d565b90945092505060808501356125cd81612205565b939692955090935050565b60008083601f8401126125ea57600080fd5b5081356001600160401b0381111561260157600080fd5b6020830191508360208260051b850101111561237e57600080fd5b6000806020838503121561262f57600080fd5b82356001600160401b0381111561264557600080fd5b612651858286016125d8565b90969095509350505050565b60006020828403121561266f57600080fd5b610b5882612465565b6000806000806060858703121561268e57600080fd5b61269785612465565b93506126a560208601612510565b925060408501356001600160401b038111156126c057600080fd5b6126cc8782880161233d565b95989497509550505050565b600080600083850360808112156126ee57600080fd5b84356001600160401b0381111561270457600080fd5b61271087828801612246565b9450506040601f198201121561272557600080fd5b50602084019150606084013561273a81612205565b809150509250925092565b600060c082019050835182526001600160401b0360208501511660208301526040840151612780604084018280518252602090810151910152565b5082516080830152602083015160a0830152610b58565b600080604083850312156127aa57600080fd5b82356127b581612205565b915060208301356124ee81612205565b6000606082840312156127d757600080fd5b610b58838361232b565b600181811c908216806127f557607f821691505b60208210810361225857634e487b7160e01b600052602260045260246000fd5b60006020828403121561282757600080fd5b8151610b5881612205565b60006020828403121561284457600080fd5b5051919050565b634e487b7160e01b600052604160045260246000fd5b604051606081016001600160401b03811182821017156128835761288361284b565b60405290565b604080519081016001600160401b03811182821017156128835761288361284b565b604051601f8201601f191681016001600160401b03811182821017156128d3576128d361284b565b604052919050565b60006001600160401b038211156128f4576128f461284b565b50601f01601f191660200190565b60006001600160401b038084111561291c5761291c61284b565b8360051b602061292d8183016128ab565b86815291850191818101903684111561294557600080fd5b865b84811015612a0b5780358681111561295f5760008081fd5b880160603682900312156129735760008081fd5b61297b612861565b61298482612465565b8152612991868301612510565b86820152604080830135898111156129a95760008081fd5b929092019136601f8401126129be5760008081fd5b82356129d16129cc826128db565b6128ab565b81815236898387010111156129e65760008081fd5b818986018a830137600091810189019190915290820152845250918301918301612947565b50979650505050505050565b60008085851115612a2757600080fd5b83861115612a3457600080fd5b5050820193919092039150565b60008451612a538184602089016121a2565b8201838582376000930192835250909392505050565b81835281816020850137506000828201602090810191909152601f909101601f19169091010190565b602081526000610cff602083018486612a69565b634e487b7160e01b600052603260045260246000fd5b6000823561013e19833603018112612ad357600080fd5b9190910192915050565b6000808335601e19843603018112612af457600080fd5b8301803591506001600160401b03821115612b0e57600080fd5b60200191503681900382131561237e57600080fd5b6001600160401b03811681146111fd57600080fd5b63ffffffff612b4689612465565b1681526020880135602082015260006040890135612b6381612b23565b6001600160401b03811660408401525087606083015260e06080830152612b8e60e083018789612a69565b6001600160a01b03861660a084015282810360c0840152612bb0818587612a69565b9a9950505050505050505050565b600060208284031215612bd057600080fd5b81516001600160401b03811115612be657600080fd5b8201601f81018413612bf757600080fd5b8051612c056129cc826128db565b818152856020838501011115612c1a57600080fd5b6117828260208301602086016121a2565b600060208284031215612c3d57600080fd5b8135610b5881612b23565b60018060a01b038516815283602082015261ffff83166040820152608060608201526000610bd260808301846121c6565b604081526000612c8c60408301856121c6565b828103602084015261178281856121c6565b600060208284031215612cb057600080fd5b8151610b588161249a565b6040815263ffffffff8351166040820152602083015160608201526000604084015160a06080840152612cf160e08401826121c6565b90506060850151603f198483030160a0850152612d0e82826121c6565b60809690960151151560c08501525050506001600160a01b039190911660209091015290565b600060408284031215612d4657600080fd5b612d4e612889565b9050815181526020820151602082015292915050565b600060408284031215612d7657600080fd5b610b588383612d34565b601f821115611243576000816000526020600020601f850160051c81016020861015612da95750805b601f850160051c820191505b81811015612dc857828155600101612db5565b505050505050565b81516001600160401b03811115612de957612de961284b565b612dfd81612df784546127e1565b84612d80565b602080601f831160018114612e325760008415612e1a5750858301515b600019600386901b1c1916600185901b178555612dc8565b600085815260208120601f198616915b82811015612e6157888601518255948401946001909101908401612e42565b5085821015612e7f5787850151600019600388901b60f8161c191681555b5050505050600190811b01905550565b600060208083018184528085518083526040925060408601915060408160051b87010184880160005b83811015612f0c57888303603f190185528151805163ffffffff1684528781015161ffff16888501528601516060878501819052612ef8818601836121c6565b968901969450505090860190600101612eb8565b509098975050505050505050565b600060408284031215612f2c57600080fd5b612f34612889565b82358152602083013560208201528091505092915050565b634e487b7160e01b600052601160045260246000fd5b600082612f7f57634e487b7160e01b600052601260045260246000fd5b500490565b80820281158282048414176108e2576108e2612f4c565b803560208310156108e257600019602084900360031b1b1692915050565b6001600160c01b03198135818116916008851015612fe15780818660080360031b1b83161692505b505092915050565b6001600160401b0360c01b8560c01b16815263ffffffff60e01b8460e01b16600882015282600c8201526000825161302881602c8501602087016121a2565b91909101602c0195945050505050565b808201808211156108e2576108e2612f4c565b8481526001600160401b0360c01b8460c01b1660208201528260288201526000825161307e8160488501602087016121a2565b9190910160480195945050505050565b6000608082840312156130a057600080fd5b6130a8612861565b8251815260208301516130ba81612b23565b60208201526130cc8460408501612d34565b6040820152939250505056fea264697066735822122023ecb36cd354c5060129df4da307e620b4a6bdcf46a44e65f0c9c09bded999c864736f6c63430008160033",
  "linkReferences": {},
  "deployedLinkReferences": {}
}