{
  "_format": "hh-sol-artifact-1",
  "contractName": "StableWrapper",
  "sourceName": "src/StableWrapper.sol",
  "abi": [
    {
      "inputs": [
        {
          "internalType": "address",
          "name": "_asset",
          "type": "address"
        },
        {
          "internalType": "string",
          "name": "_name",
          "type": "string"
        },
        {
          "internalType": "string",
          "name": "_symbol",
          "type": "string"
        },
        {
          "internalType": "uint8",
          "name": "_underlyingDecimals",
          "type": "uint8"
        },
        {
          "internalType": "address",
          "name": "_keeper",
          "type": "address"
        },
        {
          "internalType": "address",
          "name": "_lzEndpoint",
          "type": "address"
        },
        {
          "internalType": "address",
          "name": "_delegate",
          "type": "address"
        }
      ],
      "stateMutability": "nonpayable",
      "type": "constructor"
    },
    {
      "inputs": [],
      "name": "AddressMustBeNonZero",
      "type": "error"
    },
    {
      "inputs": [],
      "name": "AmountMustBeGreaterThanZero",
      "type": "error"
    },
    {
      "inputs": [],
      "name": "CannotCompleteWithdrawalInSameEpoch",
      "type": "error"
    },
    {
      "inputs": [
        {
          "internalType": "address",
          "name": "spender",
          "type": "address"
        },
        {
          "internalType": "uint256",
          "name": "allowance",
          "type": "uint256"
        },
        {
          "internalType": "uint256",
          "name": "needed",
          "type": "uint256"
        }
      ],
      "name": "ERC20InsufficientAllowance",
      "type": "error"
    },
    {
      "inputs": [
        {
          "internalType": "address",
          "name": "sender",
          "type": "address"
        },
        {
          "internalType": "uint256",
          "name": "balance",
          "type": "uint256"
        },
        {
          "internalType": "uint256",
          "name": "needed",
          "type": "uint256"
        }
      ],
      "name": "ERC20InsufficientBalance",
      "type": "error"
    },
    {
      "inputs": [
        {
          "internalType": "address",
          "name": "approver",
          "type": "address"
        }
      ],
      "name": "ERC20InvalidApprover",
      "type": "error"
    },
    {
      "inputs": [
        {
          "internalType": "address",
          "name": "receiver",
          "type": "address"
        }
      ],
      "name": "ERC20InvalidReceiver",
      "type": "error"
    },
    {
      "inputs": [
        {
          "internalType": "address",
          "name": "sender",
          "type": "address"
        }
      ],
      "name": "ERC20InvalidSender",
      "type": "error"
    },
    {
      "inputs": [
        {
          "internalType": "address",
          "name": "spender",
          "type": "address"
        }
      ],
      "name": "ERC20InvalidSpender",
      "type": "error"
    },
    {
      "inputs": [],
      "name": "IndependenceNotAllowed",
      "type": "error"
    },
    {
      "inputs": [],
      "name": "InsufficientBalance",
      "type": "error"
    },
    {
      "inputs": [],
      "name": "InvalidDelegate",
      "type": "error"
    },
    {
      "inputs": [],
      "name": "InvalidEndpointCall",
      "type": "error"
    },
    {
      "inputs": [],
      "name": "InvalidLocalDecimals",
      "type": "error"
    },
    {
      "inputs": [
        {
          "internalType": "bytes",
          "name": "options",
          "type": "bytes"
        }
      ],
      "name": "InvalidOptions",
      "type": "error"
    },
    {
      "inputs": [],
      "name": "LzTokenUnavailable",
      "type": "error"
    },
    {
      "inputs": [
        {
          "internalType": "uint32",
          "name": "eid",
          "type": "uint32"
        }
      ],
      "name": "NoPeer",
      "type": "error"
    },
    {
      "inputs": [
        {
          "internalType": "uint256",
          "name": "msgValue",
          "type": "uint256"
        }
      ],
      "name": "NotEnoughNative",
      "type": "error"
    },
    {
      "inputs": [],
      "name": "NotKeeper",
      "type": "error"
    },
    {
      "inputs": [
        {
          "internalType": "address",
          "name": "addr",
          "type": "address"
        }
      ],
      "name": "OnlyEndpoint",
      "type": "error"
    },
    {
      "inputs": [
        {
          "internalType": "uint32",
          "name": "eid",
          "type": "uint32"
        },
        {
          "internalType": "bytes32",
          "name": "sender",
          "type": "bytes32"
        }
      ],
      "name": "OnlyPeer",
      "type": "error"
    },
    {
      "inputs": [],
      "name": "OnlySelf",
      "type": "error"
    },
    {
      "inputs": [
        {
          "internalType": "address",
          "name": "owner",
          "type": "address"
        }
      ],
      "name": "OwnableInvalidOwner",
      "type": "error"
    },
    {
      "inputs": [
        {
          "internalType": "address",
          "name": "account",
          "type": "address"
        }
      ],
      "name": "OwnableUnauthorizedAccount",
      "type": "error"
    },
    {
      "inputs": [],
      "name": "ReentrancyGuardReentrantCall",
      "type": "error"
    },
    {
      "inputs": [
        {
          "internalType": "address",
          "name": "token",
          "type": "address"
        }
      ],
      "name": "SafeERC20FailedOperation",
      "type": "error"
    },
    {
      "inputs": [
        {
          "internalType": "bytes",
          "name": "result",
          "type": "bytes"
        }
      ],
      "name": "SimulationResult",
      "type": "error"
    },
    {
      "inputs": [
        {
          "internalType": "uint256",
          "name": "amountLD",
          "type": "uint256"
        },
        {
          "internalType": "uint256",
          "name": "minAmountLD",
          "type": "uint256"
        }
      ],
      "name": "SlippageExceeded",
      "type": "error"
    },
    {
      "anonymous": false,
      "inputs": [
        {
          "indexed": false,
          "internalType": "bool",
          "name": "allowIndependence",
          "type": "bool"
        }
      ],
      "name": "AllowIndependenceSet",
      "type": "event"
    },
    {
      "anonymous": false,
      "inputs": [
        {
          "indexed": true,
          "internalType": "address",
          "name": "owner",
          "type": "address"
        },
        {
          "indexed": true,
          "internalType": "address",
          "name": "spender",
          "type": "address"
        },
        {
          "indexed": false,
          "internalType": "uint256",
          "name": "value",
          "type": "uint256"
        }
      ],
      "name": "Approval",
      "type": "event"
    },
    {
      "anonymous": false,
      "inputs": [
        {
          "indexed": true,
          "internalType": "address",
          "name": "to",
          "type": "address"
        },
        {
          "indexed": false,
          "internalType": "uint256",
          "name": "amount",
          "type": "uint256"
        }
      ],
      "name": "AssetTransferred",
      "type": "event"
    },
    {
      "anonymous": false,
      "inputs": [
        {
          "indexed": true,
          "internalType": "address",
          "name": "from",
          "type": "address"
        },
        {
          "indexed": true,
          "internalType": "address",
          "name": "to",
          "type": "address"
        },
        {
          "indexed": false,
          "internalType": "uint256",
          "name": "amount",
          "type": "uint256"
        }
      ],
      "name": "Deposit",
      "type": "event"
    },
    {
      "anonymous": false,
      "inputs": [
        {
          "indexed": true,
          "internalType": "address",
          "name": "user",
          "type": "address"
        },
        {
          "indexed": false,
          "internalType": "uint256",
          "name": "amount",
          "type": "uint256"
        }
      ],
      "name": "DepositToVault",
      "type": "event"
    },
    {
      "anonymous": false,
      "inputs": [
        {
          "components": [
            {
              "internalType": "uint32",
              "name": "eid",
              "type": "uint32"
            },
            {
              "internalType": "uint16",
              "name": "msgType",
              "type": "uint16"
            },
            {
              "internalType": "bytes",
              "name": "options",
              "type": "bytes"
            }
          ],
          "indexed": false,
          "internalType": "struct EnforcedOptionParam[]",
          "name": "_enforcedOptions",
          "type": "tuple[]"
        }
      ],
      "name": "EnforcedOptionSet",
      "type": "event"
    },
    {
      "anonymous": false,
      "inputs": [
        {
          "indexed": false,
          "internalType": "uint32",
          "name": "newEpoch",
          "type": "uint32"
        }
      ],
      "name": "EpochAdvanced",
      "type": "event"
    },
    {
      "anonymous": false,
      "inputs": [
        {
          "indexed": false,
          "internalType": "address",
          "name": "keeper",
          "type": "address"
        }
      ],
      "name": "KeeperSet",
      "type": "event"
    },
    {
      "anonymous": false,
      "inputs": [
        {
          "indexed": false,
          "internalType": "address",
          "name": "inspector",
          "type": "address"
        }
      ],
      "name": "MsgInspectorSet",
      "type": "event"
    },
    {
      "anonymous": false,
      "inputs": [
        {
          "indexed": true,
          "internalType": "bytes32",
          "name": "guid",
          "type": "bytes32"
        },
        {
          "indexed": false,
          "internalType": "uint32",
          "name": "srcEid",
          "type": "uint32"
        },
        {
          "indexed": true,
          "internalType": "address",
          "name": "toAddress",
          "type": "address"
        },
        {
          "indexed": false,
          "internalType": "uint256",
          "name": "amountReceivedLD",
          "type": "uint256"
        }
      ],
      "name": "OFTReceived",
      "type": "event"
    },
    {
      "anonymous": false,
      "inputs": [
        {
          "indexed": true,
          "internalType": "bytes32",
          "name": "guid",
          "type": "bytes32"
        },
        {
          "indexed": false,
          "internalType": "uint32",
          "name": "dstEid",
          "type": "uint32"
        },
        {
          "indexed": true,
          "internalType": "address",
          "name": "fromAddress",
          "type": "address"
        },
        {
          "indexed": false,
          "internalType": "uint256",
          "name": "amountSentLD",
          "type": "uint256"
        },
        {
          "indexed": false,
          "internalType": "uint256",
          "name": "amountReceivedLD",
          "type": "uint256"
        }
      ],
      "name": "OFTSent",
      "type": "event"
    },
    {
      "anonymous": false,
      "inputs": [
        {
          "indexed": true,
          "internalType": "address",
          "name": "previousOwner",
          "type": "address"
        },
        {
          "indexed": true,
          "internalType": "address",
          "name": "newOwner",
          "type": "address"
        }
      ],
      "name": "OwnershipTransferred",
      "type": "event"
    },
    {
      "anonymous": false,
      "inputs": [
        {
          "indexed": false,
          "internalType": "uint32",
          "name": "eid",
          "type": "uint32"
        },
        {
          "indexed": false,
          "internalType": "bytes32",
          "name": "peer",
          "type": "bytes32"
        }
      ],
      "name": "PeerSet",
      "type": "event"
    },
    {
      "anonymous": false,
      "inputs": [
        {
          "indexed": true,
          "internalType": "address",
          "name": "from",
          "type": "address"
        },
        {
          "indexed": false,
          "internalType": "uint256",
          "name": "amount",
          "type": "uint256"
        }
      ],
      "name": "PermissionedBurn",
      "type": "event"
    },
    {
      "anonymous": false,
      "inputs": [
        {
          "indexed": true,
          "internalType": "address",
          "name": "to",
          "type": "address"
        },
        {
          "indexed": false,
          "internalType": "uint256",
          "name": "amount",
          "type": "uint256"
        }
      ],
      "name": "PermissionedMint",
      "type": "event"
    },
    {
      "anonymous": false,
      "inputs": [
        {
          "indexed": false,
          "internalType": "address",
          "name": "preCrimeAddress",
          "type": "address"
        }
      ],
      "name": "PreCrimeSet",
      "type": "event"
    },
    {
      "anonymous": false,
      "inputs": [
        {
          "indexed": true,
          "internalType": "address",
          "name": "from",
          "type": "address"
        },
        {
          "indexed": true,
          "internalType": "address",
          "name": "to",
          "type": "address"
        },
        {
          "indexed": false,
          "internalType": "uint256",
          "name": "value",
          "type": "uint256"
        }
      ],
      "name": "Transfer",
      "type": "event"
    },
    {
      "anonymous": false,
      "inputs": [
        {
          "indexed": true,
          "internalType": "address",
          "name": "user",
          "type": "address"
        },
        {
          "indexed": false,
          "internalType": "uint224",
          "name": "amount",
          "type": "uint224"
        },
        {
          "indexed": false,
          "internalType": "uint32",
          "name": "epoch",
          "type": "uint32"
        }
      ],
      "name": "WithdrawalInitiated",
      "type": "event"
    },
    {
      "anonymous": false,
      "inputs": [
        {
          "indexed": true,
          "internalType": "address",
          "name": "user",
          "type": "address"
        },
        {
          "indexed": false,
          "internalType": "uint256",
          "name": "amount",
          "type": "uint256"
        }
      ],
      "name": "Withdrawn",
      "type": "event"
    },
    {
      "inputs": [],
      "name": "SEND",
      "outputs": [
        {
          "internalType": "uint16",
          "name": "",
          "type": "uint16"
        }
      ],
      "stateMutability": "view",
      "type": "function"
    },
    {
      "inputs": [],
      "name": "SEND_AND_CALL",
      "outputs": [
        {
          "internalType": "uint16",
          "name": "",
          "type": "uint16"
        }
      ],
      "stateMutability": "view",
      "type": "function"
    },
    {
      "inputs": [],
      "name": "advanceEpoch",
      "outputs": [],
      "stateMutability": "nonpayable",
      "type": "function"
    },
    {
      "inputs": [],
      "name": "allowIndependence",
      "outputs": [
        {
          "internalType": "bool",
          "name": "",
          "type": "bool"
        }
      ],
      "stateMutability": "view",
      "type": "function"
    },
    {
      "inputs": [
        {
          "components": [
            {
              "internalType": "uint32",
              "name": "srcEid",
              "type": "uint32"
            },
            {
              "internalType": "bytes32",
              "name": "sender",
              "type": "bytes32"
            },
            {
              "internalType": "uint64",
              "name": "nonce",
              "type": "uint64"
            }
          ],
          "internalType": "struct Origin",
          "name": "origin",
          "type": "tuple"
        }
      ],
      "name": "allowInitializePath",
      "outputs": [
        {
          "internalType": "bool",
          "name": "",
          "type": "bool"
        }
      ],
      "stateMutability": "view",
      "type": "function"
    },
    {
      "inputs": [
        {
          "internalType": "address",
          "name": "owner",
          "type": "address"
        },
        {
          "internalType": "address",
          "name": "spender",
          "type": "address"
        }
      ],
      "name": "allowance",
      "outputs": [
        {
          "internalType": "uint256",
          "name": "",
          "type": "uint256"
        }
      ],
      "stateMutability": "view",
      "type": "function"
    },
    {
      "inputs": [],
      "name": "approvalRequired",
      "outputs": [
        {
          "internalType": "bool",
          "name": "",
          "type": "bool"
        }
      ],
      "stateMutability": "pure",
      "type": "function"
    },
    {
      "inputs": [
        {
          "internalType": "address",
          "name": "spender",
          "type": "address"
        },
        {
          "internalType": "uint256",
          "name": "value",
          "type": "uint256"
        }
      ],
      "name": "approve",
      "outputs": [
        {
          "internalType": "bool",
          "name": "",
          "type": "bool"
        }
      ],
      "stateMutability": "nonpayable",
      "type": "function"
    },
    {
      "inputs": [],
      "name": "asset",
      "outputs": [
        {
          "internalType": "address",
          "name": "",
          "type": "address"
        }
      ],
      "stateMutability": "view",
      "type": "function"
    },
    {
      "inputs": [
        {
          "internalType": "address",
          "name": "account",
          "type": "address"
        }
      ],
      "name": "balanceOf",
      "outputs": [
        {
          "internalType": "uint256",
          "name": "",
          "type": "uint256"
        }
      ],
      "stateMutability": "view",
      "type": "function"
    },
    {
      "inputs": [
        {
          "internalType": "uint32",
          "name": "_eid",
          "type": "uint32"
        },
        {
          "internalType": "uint16",
          "name": "_msgType",
          "type": "uint16"
        },
        {
          "internalType": "bytes",
          "name": "_extraOptions",
          "type": "bytes"
        }
      ],
      "name": "combineOptions",
      "outputs": [
        {
          "internalType": "bytes",
          "name": "",
          "type": "bytes"
        }
      ],
      "stateMutability": "view",
      "type": "function"
    },
    {
      "inputs": [
        {
          "internalType": "address",
          "name": "to",
          "type": "address"
        }
      ],
      "name": "completeWithdrawal",
      "outputs": [],
      "stateMutability": "nonpayable",
      "type": "function"
    },
    {
      "inputs": [],
      "name": "currentEpoch",
      "outputs": [
        {
          "internalType": "uint32",
          "name": "",
          "type": "uint32"
        }
      ],
      "stateMutability": "view",
      "type": "function"
    },
    {
      "inputs": [],
      "name": "decimalConversionRate",
      "outputs": [
        {
          "internalType": "uint256",
          "name": "",
          "type": "uint256"
        }
      ],
      "stateMutability": "view",
      "type": "function"
    },
    {
      "inputs": [],
      "name": "decimals",
      "outputs": [
        {
          "internalType": "uint8",
          "name": "",
          "type": "uint8"
        }
      ],
      "stateMutability": "view",
      "type": "function"
    },
    {
      "inputs": [
        {
          "internalType": "address",
          "name": "to",
          "type": "address"
        },
        {
          "internalType": "uint256",
          "name": "amount",
          "type": "uint256"
        }
      ],
      "name": "deposit",
      "outputs": [],
      "stateMutability": "nonpayable",
      "type": "function"
    },
    {
      "inputs": [
        {
          "internalType": "address",
          "name": "from",
          "type": "address"
        },
        {
          "internalType": "uint256",
          "name": "amount",
          "type": "uint256"
        }
      ],
      "name": "depositToVault",
      "outputs": [],
      "stateMutability": "nonpayable",
      "type": "function"
    },
    {
      "inputs": [],
      "name": "endpoint",
      "outputs": [
        {
          "internalType": "contract ILayerZeroEndpointV2",
          "name": "",
          "type": "address"
        }
      ],
      "stateMutability": "view",
      "type": "function"
    },
    {
      "inputs": [
        {
          "internalType": "uint32",
          "name": "eid",
          "type": "uint32"
        },
        {
          "internalType": "uint16",
          "name": "msgType",
          "type": "uint16"
        }
      ],
      "name": "enforcedOptions",
      "outputs": [
        {
          "internalType": "bytes",
          "name": "enforcedOption",
          "type": "bytes"
        }
      ],
      "stateMutability": "view",
      "type": "function"
    },
    {
      "inputs": [
        {
          "internalType": "uint224",
          "name": "amount",
          "type": "uint224"
        }
      ],
      "name": "initiateWithdrawal",
      "outputs": [],
      "stateMutability": "nonpayable",
      "type": "function"
    },
    {
      "inputs": [
        {
          "internalType": "address",
          "name": "from",
          "type": "address"
        },
        {
          "internalType": "uint224",
          "name": "amount",
          "type": "uint224"
        }
      ],
      "name": "initiateWithdrawalFromVault",
      "outputs": [],
      "stateMutability": "nonpayable",
      "type": "function"
    },
    {
      "inputs": [
        {
          "components": [
            {
              "internalType": "uint32",
              "name": "srcEid",
              "type": "uint32"
            },
            {
              "internalType": "bytes32",
              "name": "sender",
              "type": "bytes32"
            },
            {
              "internalType": "uint64",
              "name": "nonce",
              "type": "uint64"
            }
          ],
          "internalType": "struct Origin",
          "name": "",
          "type": "tuple"
        },
        {
          "internalType": "bytes",
          "name": "",
          "type": "bytes"
        },
        {
          "internalType": "address",
          "name": "_sender",
          "type": "address"
        }
      ],
      "name": "isComposeMsgSender",
      "outputs": [
        {
          "internalType": "bool",
          "name": "",
          "type": "bool"
        }
      ],
      "stateMutability": "view",
      "type": "function"
    },
    {
      "inputs": [
        {
          "internalType": "uint32",
          "name": "_eid",
          "type": "uint32"
        },
        {
          "internalType": "bytes32",
          "name": "_peer",
          "type": "bytes32"
        }
      ],
      "name": "isPeer",
      "outputs": [
        {
          "internalType": "bool",
          "name": "",
          "type": "bool"
        }
      ],
      "stateMutability": "view",
      "type": "function"
    },
    {
      "inputs": [],
      "name": "keeper",
      "outputs": [
        {
          "internalType": "address",
          "name": "",
          "type": "address"
        }
      ],
      "stateMutability": "view",
      "type": "function"
    },
    {
      "inputs": [
        {
          "components": [
            {
              "internalType": "uint32",
              "name": "srcEid",
              "type": "uint32"
            },
            {
              "internalType": "bytes32",
              "name": "sender",
              "type": "bytes32"
            },
            {
              "internalType": "uint64",
              "name": "nonce",
              "type": "uint64"
            }
          ],
          "internalType": "struct Origin",
          "name": "_origin",
          "type": "tuple"
        },
        {
          "internalType": "bytes32",
          "name": "_guid",
          "type": "bytes32"
        },
        {
          "internalType": "bytes",
          "name": "_message",
          "type": "bytes"
        },
        {
          "internalType": "address",
          "name": "_executor",
          "type": "address"
        },
        {
          "internalType": "bytes",
          "name": "_extraData",
          "type": "bytes"
        }
      ],
      "name": "lzReceive",
      "outputs": [],
      "stateMutability": "payable",
      "type": "function"
    },
    {
      "inputs": [
        {
          "components": [
            {
              "components": [
                {
                  "internalType": "uint32",
                  "name": "srcEid",
                  "type": "uint32"
                },
                {
                  "internalType": "bytes32",
                  "name": "sender",
                  "type": "bytes32"
                },
                {
                  "internalType": "uint64",
                  "name": "nonce",
                  "type": "uint64"
                }
              ],
              "internalType": "struct Origin",
              "name": "origin",
              "type": "tuple"
            },
            {
              "internalType": "uint32",
              "name": "dstEid",
              "type": "uint32"
            },
            {
              "internalType": "address",
              "name": "receiver",
              "type": "address"
            },
            {
              "internalType": "bytes32",
              "name": "guid",
              "type": "bytes32"
            },
            {
              "internalType": "uint256",
              "name": "value",
              "type": "uint256"
            },
            {
              "internalType": "address",
              "name": "executor",
              "type": "address"
            },
            {
              "internalType": "bytes",
              "name": "message",
              "type": "bytes"
            },
            {
              "internalType": "bytes",
              "name": "extraData",
              "type": "bytes"
            }
          ],
          "internalType": "struct InboundPacket[]",
          "name": "_packets",
          "type": "tuple[]"
        }
      ],
      "name": "lzReceiveAndRevert",
      "outputs": [],
      "stateMutability": "payable",
      "type": "function"
    },
    {
      "inputs": [
        {
          "components": [
            {
              "internalType": "uint32",
              "name": "srcEid",
              "type": "uint32"
            },
            {
              "internalType": "bytes32",
              "name": "sender",
              "type": "bytes32"
            },
            {
              "internalType": "uint64",
              "name": "nonce",
              "type": "uint64"
            }
          ],
          "internalType": "struct Origin",
          "name": "_origin",
          "type": "tuple"
        },
        {
          "internalType": "bytes32",
          "name": "_guid",
          "type": "bytes32"
        },
        {
          "internalType": "bytes",
          "name": "_message",
          "type": "bytes"
        },
        {
          "internalType": "address",
          "name": "_executor",
          "type": "address"
        },
        {
          "internalType": "bytes",
          "name": "_extraData",
          "type": "bytes"
        }
      ],
      "name": "lzReceiveSimulate",
      "outputs": [],
      "stateMutability": "payable",
      "type": "function"
    },
    {
      "inputs": [],
      "name": "msgInspector",
      "outputs": [
        {
          "internalType": "address",
          "name": "",
          "type": "address"
        }
      ],
      "stateMutability": "view",
      "type": "function"
    },
    {
      "inputs": [],
      "name": "name",
      "outputs": [
        {
          "internalType": "string",
          "name": "",
          "type": "string"
        }
      ],
      "stateMutability": "view",
      "type": "function"
    },
    {
      "inputs": [
        {
          "internalType": "uint32",
          "name": "",
          "type": "uint32"
        },
        {
          "internalType": "bytes32",
          "name": "",
          "type": "bytes32"
        }
      ],
      "name": "nextNonce",
      "outputs": [
        {
          "internalType": "uint64",
          "name": "nonce",
          "type": "uint64"
        }
      ],
      "stateMutability": "view",
      "type": "function"
    },
    {
      "inputs": [],
      "name": "oApp",
      "outputs": [
        {
          "internalType": "address",
          "name": "",
          "type": "address"
        }
      ],
      "stateMutability": "view",
      "type": "function"
    },
    {
      "inputs": [],
      "name": "oAppVersion",
      "outputs": [
        {
          "internalType": "uint64",
          "name": "senderVersion",
          "type": "uint64"
        },
        {
          "internalType": "uint64",
          "name": "receiverVersion",
          "type": "uint64"
        }
      ],
      "stateMutability": "pure",
      "type": "function"
    },
    {
      "inputs": [],
      "name": "oftVersion",
      "outputs": [
        {
          "internalType": "bytes4",
          "name": "interfaceId",
          "type": "bytes4"
        },
        {
          "internalType": "uint64",
          "name": "version",
          "type": "uint64"
        }
      ],
      "stateMutability": "pure",
      "type": "function"
    },
    {
      "inputs": [],
      "name": "owner",
      "outputs": [
        {
          "internalType": "address",
          "name": "",
          "type": "address"
        }
      ],
      "stateMutability": "view",
      "type": "function"
    },
    {
      "inputs": [
        {
          "internalType": "uint32",
          "name": "eid",
          "type": "uint32"
        }
      ],
      "name": "peers",
      "outputs": [
        {
          "internalType": "bytes32",
          "name": "peer",
          "type": "bytes32"
        }
      ],
      "stateMutability": "view",
      "type": "function"
    },
    {
      "inputs": [
        {
          "internalType": "address",
          "name": "from",
          "type": "address"
        },
        {
          "internalType": "uint256",
          "name": "amount",
          "type": "uint256"
        }
      ],
      "name": "permissionedBurn",
      "outputs": [],
      "stateMutability": "nonpayable",
      "type": "function"
    },
    {
      "inputs": [
        {
          "internalType": "address",
          "name": "to",
          "type": "address"
        },
        {
          "internalType": "uint256",
          "name": "amount",
          "type": "uint256"
        }
      ],
      "name": "permissionedMint",
      "outputs": [],
      "stateMutability": "nonpayable",
      "type": "function"
    },
    {
      "inputs": [],
      "name": "preCrime",
      "outputs": [
        {
          "internalType": "address",
          "name": "",
          "type": "address"
        }
      ],
      "stateMutability": "view",
      "type": "function"
    },
    {
      "inputs": [
        {
          "components": [
            {
              "internalType": "uint32",
              "name": "dstEid",
              "type": "uint32"
            },
            {
              "internalType": "bytes32",
              "name": "to",
              "type": "bytes32"
            },
            {
              "internalType": "uint256",
              "name": "amountLD",
              "type": "uint256"
            },
            {
              "internalType": "uint256",
              "name": "minAmountLD",
              "type": "uint256"
            },
            {
              "internalType": "bytes",
              "name": "extraOptions",
              "type": "bytes"
            },
            {
              "internalType": "bytes",
              "name": "composeMsg",
              "type": "bytes"
            },
            {
              "internalType": "bytes",
              "name": "oftCmd",
              "type": "bytes"
            }
          ],
          "internalType": "struct SendParam",
          "name": "_sendParam",
          "type": "tuple"
        }
      ],
      "name": "quoteOFT",
      "outputs": [
        {
          "components": [
            {
              "internalType": "uint256",
              "name": "minAmountLD",
              "type": "uint256"
            },
            {
              "internalType": "uint256",
              "name": "maxAmountLD",
              "type": "uint256"
            }
          ],
          "internalType": "struct OFTLimit",
          "name": "oftLimit",
          "type": "tuple"
        },
        {
          "components": [
            {
              "internalType": "int256",
              "name": "feeAmountLD",
              "type": "int256"
            },
            {
              "internalType": "string",
              "name": "description",
              "type": "string"
            }
          ],
          "internalType": "struct OFTFeeDetail[]",
          "name": "oftFeeDetails",
          "type": "tuple[]"
        },
        {
          "components": [
            {
              "internalType": "uint256",
              "name": "amountSentLD",
              "type": "uint256"
            },
            {
              "internalType": "uint256",
              "name": "amountReceivedLD",
              "type": "uint256"
            }
          ],
          "internalType": "struct OFTReceipt",
          "name": "oftReceipt",
          "type": "tuple"
        }
      ],
      "stateMutability": "view",
      "type": "function"
    },
    {
      "inputs": [
        {
          "components": [
            {
              "internalType": "uint32",
              "name": "dstEid",
              "type": "uint32"
            },
            {
              "internalType": "bytes32",
              "name": "to",
              "type": "bytes32"
            },
            {
              "internalType": "uint256",
              "name": "amountLD",
              "type": "uint256"
            },
            {
              "internalType": "uint256",
              "name": "minAmountLD",
              "type": "uint256"
            },
            {
              "internalType": "bytes",
              "name": "extraOptions",
              "type": "bytes"
            },
            {
              "internalType": "bytes",
              "name": "composeMsg",
              "type": "bytes"
            },
            {
              "internalType": "bytes",
              "name": "oftCmd",
              "type": "bytes"
            }
          ],
          "internalType": "struct SendParam",
          "name": "_sendParam",
          "type": "tuple"
        },
        {
          "internalType": "bool",
          "name": "_payInLzToken",
          "type": "bool"
        }
      ],
      "name": "quoteSend",
      "outputs": [
        {
          "components": [
            {
              "internalType": "uint256",
              "name": "nativeFee",
              "type": "uint256"
            },
            {
              "internalType": "uint256",
              "name": "lzTokenFee",
              "type": "uint256"
            }
          ],
          "internalType": "struct MessagingFee",
          "name": "msgFee",
          "type": "tuple"
        }
      ],
      "stateMutability": "view",
      "type": "function"
    },
    {
      "inputs": [],
      "name": "renounceOwnership",
      "outputs": [],
      "stateMutability": "nonpayable",
      "type": "function"
    },
    {
      "inputs": [
        {
          "components": [
            {
              "internalType": "uint32",
              "name": "dstEid",
              "type": "uint32"
            },
            {
              "internalType": "bytes32",
              "name": "to",
              "type": "bytes32"
            },
            {
              "internalType": "uint256",
              "name": "amountLD",
              "type": "uint256"
            },
            {
              "internalType": "uint256",
              "name": "minAmountLD",
              "type": "uint256"
            },
            {
              "internalType": "bytes",
              "name": "extraOptions",
              "type": "bytes"
            },
            {
              "internalType": "bytes",
              "name": "composeMsg",
              "type": "bytes"
            },
            {
              "internalType": "bytes",
              "name": "oftCmd",
              "type": "bytes"
            }
          ],
          "internalType": "struct SendParam",
          "name": "_sendParam",
          "type": "tuple"
        },
        {
          "components": [
            {
              "internalType": "uint256",
              "name": "nativeFee",
              "type": "uint256"
            },
            {
              "internalType": "uint256",
              "name": "lzTokenFee",
              "type": "uint256"
            }
          ],
          "internalType": "struct MessagingFee",
          "name": "_fee",
          "type": "tuple"
        },
        {
          "internalType": "address",
          "name": "_refundAddress",
          "type": "address"
        }
      ],
      "name": "send",
      "outputs": [
        {
          "components": [
            {
              "internalType": "bytes32",
              "name": "guid",
              "type": "bytes32"
            },
            {
              "internalType": "uint64",
              "name": "nonce",
              "type": "uint64"
            },
            {
              "components": [
                {
                  "internalType": "uint256",
                  "name": "nativeFee",
                  "type": "uint256"
                },
                {
                  "internalType": "uint256",
                  "name": "lzTokenFee",
                  "type": "uint256"
                }
              ],
              "internalType": "struct MessagingFee",
              "name": "fee",
              "type": "tuple"
            }
          ],
          "internalType": "struct MessagingReceipt",
          "name": "msgReceipt",
          "type": "tuple"
        },
        {
          "components": [
            {
              "internalType": "uint256",
              "name": "amountSentLD",
              "type": "uint256"
            },
            {
              "internalType": "uint256",
              "name": "amountReceivedLD",
              "type": "uint256"
            }
          ],
          "internalType": "struct OFTReceipt",
          "name": "oftReceipt",
          "type": "tuple"
        }
      ],
      "stateMutability": "payable",
      "type": "function"
    },
    {
      "inputs": [
        {
          "internalType": "bool",
          "name": "_allowIndependence",
          "type": "bool"
        }
      ],
      "name": "setAllowIndependence",
      "outputs": [],
      "stateMutability": "nonpayable",
      "type": "function"
    },
    {
      "inputs": [
        {
          "internalType": "address",
          "name": "_asset",
          "type": "address"
        }
      ],
      "name": "setAsset",
      "outputs": [],
      "stateMutability": "nonpayable",
      "type": "function"
    },
    {
      "inputs": [
        {
          "internalType": "uint8",
          "name": "_newDecimals",
          "type": "uint8"
        }
      ],
      "name": "setDecimals",
      "outputs": [],
      "stateMutability": "nonpayable",
      "type": "function"
    },
    {
      "inputs": [
        {
          "internalType": "address",
          "name": "_delegate",
          "type": "address"
        }
      ],
      "name": "setDelegate",
      "outputs": [],
      "stateMutability": "nonpayable",
      "type": "function"
    },
    {
      "inputs": [
        {
          "components": [
            {
              "internalType": "uint32",
              "name": "eid",
              "type": "uint32"
            },
            {
              "internalType": "uint16",
              "name": "msgType",
              "type": "uint16"
            },
            {
              "internalType": "bytes",
              "name": "options",
              "type": "bytes"
            }
          ],
          "internalType": "struct EnforcedOptionParam[]",
          "name": "_enforcedOptions",
          "type": "tuple[]"
        }
      ],
      "name": "setEnforcedOptions",
      "outputs": [],
      "stateMutability": "nonpayable",
      "type": "function"
    },
    {
      "inputs": [
        {
          "internalType": "address",
          "name": "_keeper",
          "type": "address"
        }
      ],
      "name": "setKeeper",
      "outputs": [],
      "stateMutability": "nonpayable",
      "type": "function"
    },
    {
      "inputs": [
        {
          "internalType": "address",
          "name": "_msgInspector",
          "type": "address"
        }
      ],
      "name": "setMsgInspector",
      "outputs": [],
      "stateMutability": "nonpayable",
      "type": "function"
    },
    {
      "inputs": [
        {
          "internalType": "uint32",
          "name": "_eid",
          "type": "uint32"
        },
        {
          "internalType": "bytes32",
          "name": "_peer",
          "type": "bytes32"
        }
      ],
      "name": "setPeer",
      "outputs": [],
      "stateMutability": "nonpayable",
      "type": "function"
    },
    {
      "inputs": [
        {
          "internalType": "address",
          "name": "_preCrime",
          "type": "address"
        }
      ],
      "name": "setPreCrime",
      "outputs": [],
      "stateMutability": "nonpayable",
      "type": "function"
    },
    {
      "inputs": [],
      "name": "sharedDecimals",
      "outputs": [
        {
          "internalType": "uint8",
          "name": "",
          "type": "uint8"
        }
      ],
      "stateMutability": "view",
      "type": "function"
    },
    {
      "inputs": [],
      "name": "symbol",
      "outputs": [
        {
          "internalType": "string",
          "name": "",
          "type": "string"
        }
      ],
      "stateMutability": "view",
      "type": "function"
    },
    {
      "inputs": [],
      "name": "token",
      "outputs": [
        {
          "internalType": "address",
          "name": "",
          "type": "address"
        }
      ],
      "stateMutability": "view",
      "type": "function"
    },
    {
      "inputs": [],
      "name": "totalSupply",
      "outputs": [
        {
          "internalType": "uint256",
          "name": "",
          "type": "uint256"
        }
      ],
      "stateMutability": "view",
      "type": "function"
    },
    {
      "inputs": [
        {
          "internalType": "address",
          "name": "to",
          "type": "address"
        },
        {
          "internalType": "uint256",
          "name": "value",
          "type": "uint256"
        }
      ],
      "name": "transfer",
      "outputs": [
        {
          "internalType": "bool",
          "name": "",
          "type": "bool"
        }
      ],
      "stateMutability": "nonpayable",
      "type": "function"
    },
    {
      "inputs": [
        {
          "internalType": "address",
          "name": "to",
          "type": "address"
        },
        {
          "internalType": "uint256",
          "name": "amount",
          "type": "uint256"
        },
        {
          "internalType": "address",
          "name": "_token",
          "type": "address"
        }
      ],
      "name": "transferAsset",
      "outputs": [],
      "stateMutability": "nonpayable",
      "type": "function"
    },
    {
      "inputs": [
        {
          "internalType": "address",
          "name": "from",
          "type": "address"
        },
        {
          "internalType": "address",
          "name": "to",
          "type": "address"
        },
        {
          "internalType": "uint256",
          "name": "value",
          "type": "uint256"
        }
      ],
      "name": "transferFrom",
      "outputs": [
        {
          "internalType": "bool",
          "name": "",
          "type": "bool"
        }
      ],
      "stateMutability": "nonpayable",
      "type": "function"
    },
    {
      "inputs": [
        {
          "internalType": "address",
          "name": "newOwner",
          "type": "address"
        }
      ],
      "name": "transferOwnership",
      "outputs": [],
      "stateMutability": "nonpayable",
      "type": "function"
    },
    {
      "inputs": [],
      "name": "underlyingDecimals",
      "outputs": [
        {
          "internalType": "uint8",
          "name": "",
          "type": "uint8"
        }
      ],
      "stateMutability": "view",
      "type": "function"
    },
    {
      "inputs": [
        {
          "internalType": "address",
          "name": "",
          "type": "address"
        }
      ],
      "name": "withdrawalReceipts",
      "outputs": [
        {
          "internalType": "uint224",
          "name": "amount",
          "type": "uint224"
        },
        {
          "internalType": "uint32",
          "name": "epoch",
          "type": "uint32"
        }
      ],
      "stateMutability": "view",
      "type": "function"
    }
  ],
  "bytecode": "0x60c06040523480156200001157600080fd5b506040516200469a3803806200469a8339810160408190526200003491620003a9565b8585838383836200004e600b54600160c81b900460ff1690565b84848181818133806200007b57604051631e4fbdf760e01b81526000600482015260240160405180910390fd5b620000868162000259565b506001600160a01b038083166080528116620000b557604051632d618d8160e21b815260040160405180910390fd5b60805160405163ca5eb5e160e01b81526001600160a01b0383811660048301529091169063ca5eb5e190602401600060405180830381600087803b158015620000fd57600080fd5b505af115801562000112573d6000803e3d6000fd5b50505050505050506200012a620002a960201b60201c565b60ff168360ff16101562000151576040516301e9714b60e41b815260040160405180910390fd5b6200015b620002a9565b6200016790846200048e565b6200017490600a620005ad565b60a05250600891506200018a9050838262000656565b50600962000199828262000656565b50506001600a555050506001600160a01b0389169150620001cf9050576040516309be64cd60e41b815260040160405180910390fd5b6001600160a01b038316620001f7576040516309be64cd60e41b815260040160405180910390fd5b5050600b8054600c80546001600160a01b039485166001600160a01b031990911617905560ff93909316600160c81b0261ffff60c01b196001600160c01b03199094169690921695909517600160a01b17919091161790925550620007229050565b600080546001600160a01b038381166001600160a01b0319831681178455604051919092169283917f8be0079c531659141344cd1fd0a4f28419497f9722a3daafe3b4186f6b6457e09190a35050565b6000620002bf600b54600160c81b900460ff1690565b905090565b80516001600160a01b0381168114620002dc57600080fd5b919050565b634e487b7160e01b600052604160045260246000fd5b600082601f8301126200030957600080fd5b81516001600160401b0380821115620003265762000326620002e1565b604051601f8301601f19908116603f01168101908282118183101715620003515762000351620002e1565b81604052838152602092508660208588010111156200036f57600080fd5b600091505b8382101562000393578582018301518183018401529082019062000374565b6000602085830101528094505050505092915050565b600080600080600080600060e0888a031215620003c557600080fd5b620003d088620002c4565b60208901519097506001600160401b0380821115620003ee57600080fd5b620003fc8b838c01620002f7565b975060408a01519150808211156200041357600080fd5b50620004228a828b01620002f7565b955050606088015160ff811681146200043a57600080fd5b93506200044a60808901620002c4565b92506200045a60a08901620002c4565b91506200046a60c08901620002c4565b905092959891949750929550565b634e487b7160e01b600052601160045260246000fd5b60ff8281168282160390811115620004aa57620004aa62000478565b92915050565b600181815b80851115620004f1578160001904821115620004d557620004d562000478565b80851615620004e357918102915b93841c9390800290620004b5565b509250929050565b6000826200050a57506001620004aa565b816200051957506000620004aa565b81600181146200053257600281146200053d576200055d565b6001915050620004aa565b60ff84111562000551576200055162000478565b50506001821b620004aa565b5060208310610133831016604e8410600b841016171562000582575081810a620004aa565b6200058e8383620004b0565b8060001904821115620005a557620005a562000478565b029392505050565b6000620005be60ff841683620004f9565b9392505050565b600181811c90821680620005da57607f821691505b602082108103620005fb57634e487b7160e01b600052602260045260246000fd5b50919050565b601f82111562000651576000816000526020600020601f850160051c810160208610156200062c5750805b601f850160051c820191505b818110156200064d5782815560010162000638565b5050505b505050565b81516001600160401b03811115620006725762000672620002e1565b6200068a81620006838454620005c5565b8462000601565b602080601f831160018114620006c25760008415620006a95750858301515b600019600386901b1c1916600185901b1785556200064d565b600085815260208120601f198616915b82811015620006f357888601518255948401946001909101908401620006d2565b5085821015620007125787850151600019600388901b60f8161c191681555b5050505050600190811b01905550565b60805160a051613f0c6200078e600039600081816108d90152818161285d015281816128d20152612b470152600081816106f301528181610e3c01528181611ce201528181611fa2015281816123a201528181612c3f01528181612d430152612dfc0152613f0c6000f3fe6080604052600436106103a25760003560e01c8063798002f0116101e7578063b98bd0701161010d578063d045a0dc116100a0578063f2fde38b1161006f578063f2fde38b14610b9c578063fc0c546a14610677578063fee047af14610bbc578063ff7bd03d14610bdd57600080fd5b8063d045a0dc14610b03578063d0d552dd14610b16578063d424388514610b36578063dd62ed3e14610b5657600080fd5b8063be435c8c116100dc578063be435c8c14610a82578063c761ac8a14610aa2578063c7c7f5b314610ac2578063ca5eb5e114610ae357600080fd5b8063b98bd07014610a02578063bb0b6a5314610a22578063bc70b35414610a4f578063bd815db014610a6f57600080fd5b8063963efcaa11610185578063a8b90bc711610154578063a8b90bc714610982578063a9059cbb146109a2578063aced1661146109c2578063b731ea0a146109e257600080fd5b8063963efcaa146108c75780639649b0a2146108fb5780639f68b9641461094e578063a3d111581461096257600080fd5b806382413eac116101c157806382413eac14610874578063857749b0146105b65780638da5cb5b1461089457806395d89b41146108b257600080fd5b8063798002f0146107f95780637a1395aa146108195780637d25a05e1461083957600080fd5b80633400288b116102cc5780635a0dfe4d1161026a57806370a082311161023957806370a0823114610755578063715018a61461078b578063748747e6146107a057806376671808146107c057600080fd5b80635a0dfe4d146106aa5780635e280f11146106e15780636dbaf9ee146107155780636fc1b31e1461073557600080fd5b80633cf80e6c116102a65780633cf80e6c1461064257806347e7ef241461065757806352ae2879146106775780635535d4611461068a57600080fd5b80633400288b146105d557806338d52e0f146105f55780633b6f743b1461061557600080fd5b806317442b701161034457806325a760c21161031357806325a760c2146105435780632b032f3e146105765780632cef206d14610596578063313ce567146105b657600080fd5b806317442b70146104cd57806318160ddd146104ef5780631f5e13341461050e57806323b872dd1461052357600080fd5b8063111ecdad11610380578063111ecdad1461043157806313137d6514610469578063134d4f251461047e578063156a0d0f146104a657600080fd5b806306fdde03146103a7578063095ea7b3146103d25780630d35b41514610402575b600080fd5b3480156103b357600080fd5b506103bc610bfd565b6040516103c99190612eb8565b60405180910390f35b3480156103de57600080fd5b506103f26103ed366004612ee0565b610c8f565b60405190151581526020016103c9565b34801561040e57600080fd5b5061042261041d366004612f24565b610ca9565b6040516103c993929190612f58565b34801561043d57600080fd5b50600454610451906001600160a01b031681565b6040516001600160a01b0390911681526020016103c9565b61047c61047736600461304b565b610e3a565b005b34801561048a57600080fd5b50610493600281565b60405161ffff90911681526020016103c9565b3480156104b257600080fd5b506040805162b9270b60e21b815260016020820152016103c9565b3480156104d957600080fd5b50604080516001815260026020820152016103c9565b3480156104fb57600080fd5b506007545b6040519081526020016103c9565b34801561051a57600080fd5b50610493600181565b34801561052f57600080fd5b506103f261053e3660046130ea565b610efa565b34801561054f57600080fd5b50600b5461056490600160c81b900460ff1681565b60405160ff90911681526020016103c9565b34801561058257600080fd5b5061047c610591366004612ee0565b610f20565b3480156105a257600080fd5b5061047c6105b136600461312b565b610f9c565b3480156105c257600080fd5b50600b54600160c81b900460ff16610564565b3480156105e157600080fd5b5061047c6105f0366004613186565b611021565b34801561060157600080fd5b50600b54610451906001600160a01b031681565b34801561062157600080fd5b506106356106303660046131b0565b611037565b6040516103c99190613201565b34801561064e57600080fd5b5061047c61109e565b34801561066357600080fd5b5061047c610672366004612ee0565b611128565b34801561068357600080fd5b5030610451565b34801561069657600080fd5b506103bc6106a536600461322a565b6111e7565b3480156106b657600080fd5b506103f26106c5366004613186565b63ffffffff919091166000908152600160205260409020541490565b3480156106ed57600080fd5b506104517f000000000000000000000000000000000000000000000000000000000000000081565b34801561072157600080fd5b5061047c61073036600461325d565b61128c565b34801561074157600080fd5b5061047c61075036600461325d565b6113aa565b34801561076157600080fd5b5061050061077036600461325d565b6001600160a01b031660009081526005602052604090205490565b34801561079757600080fd5b5061047c611407565b3480156107ac57600080fd5b5061047c6107bb36600461325d565b61141b565b3480156107cc57600080fd5b50600b546107e490600160a01b900463ffffffff1681565b60405163ffffffff90911681526020016103c9565b34801561080557600080fd5b5061047c610814366004613291565b611498565b34801561082557600080fd5b5061047c6108343660046132ac565b611608565b34801561084557600080fd5b5061085c610854366004613186565b600092915050565b6040516001600160401b0390911681526020016103c9565b34801561088057600080fd5b506103f261088f3660046132cf565b611630565b3480156108a057600080fd5b506000546001600160a01b0316610451565b3480156108be57600080fd5b506103bc611645565b3480156108d357600080fd5b506105007f000000000000000000000000000000000000000000000000000000000000000081565b34801561090757600080fd5b5061094061091636600461325d565b600d602052600090815260409020546001600160e01b03811690600160e01b900463ffffffff1682565b6040516103c9929190613335565b34801561095a57600080fd5b5060006103f2565b34801561096e57600080fd5b5061047c61097d366004612ee0565b611654565b34801561098e57600080fd5b5061047c61099d366004613354565b61171e565b3480156109ae57600080fd5b506103f26109bd366004612ee0565b611773565b3480156109ce57600080fd5b50600c54610451906001600160a01b031681565b3480156109ee57600080fd5b50600254610451906001600160a01b031681565b348015610a0e57600080fd5b5061047c610a1d3660046133b5565b611781565b348015610a2e57600080fd5b50610500610a3d3660046133f6565b60016020526000908152604090205481565b348015610a5b57600080fd5b506103bc610a6a366004613411565b61179b565b61047c610a7d3660046133b5565b611943565b348015610a8e57600080fd5b5061047c610a9d366004613471565b611acd565b348015610aae57600080fd5b5061047c610abd366004612ee0565b611c17565b610ad5610ad036600461349d565b611c87565b6040516103c99291906134ff565b348015610aef57600080fd5b5061047c610afe36600461325d565b611cbb565b61047c610b1136600461304b565b611d41565b348015610b2257600080fd5b5061047c610b3136600461325d565b611d70565b348015610b4257600080fd5b5061047c610b5136600461325d565b611dc1565b348015610b6257600080fd5b50610500610b71366004613551565b6001600160a01b03918216600090815260066020908152604080832093909416825291909152205490565b348015610ba857600080fd5b5061047c610bb736600461325d565b611e17565b348015610bc857600080fd5b50600b546103f290600160c01b900460ff1681565b348015610be957600080fd5b506103f2610bf836600461357f565b611e52565b606060088054610c0c9061359b565b80601f0160208091040260200160405190810160405280929190818152602001828054610c389061359b565b8015610c855780601f10610c5a57610100808354040283529160200191610c85565b820191906000526020600020905b815481529060010190602001808311610c6857829003601f168201915b5050505050905090565b600033610c9d818585611e88565b60019150505b92915050565b60408051808201909152600080825260208201526060610cdc604051806040016040528060008152602001600081525090565b600080306001600160a01b031663fc0c546a6040518163ffffffff1660e01b8152600401602060405180830381865afa158015610d1d573d6000803e3d6000fd5b505050506040513d601f19601f82011682018060405250810190610d4191906135cf565b6001600160a01b03166318160ddd6040518163ffffffff1660e01b8152600401602060405180830381865afa158015610d7e573d6000803e3d6000fd5b505050506040513d601f19601f82011682018060405250810190610da291906135ec565b60408051808201825284815260208082018490528251600080825291810190935290975091925090610df7565b604080518082019091526000815260606020820152815260200190600190039081610dcf5790505b509350600080610e1c604089013560608a0135610e1760208c018c6133f6565b611e95565b60408051808201909152918252602082015296989597505050505050565b7f00000000000000000000000000000000000000000000000000000000000000006001600160a01b03163314610e8a576040516391ac5e4f60e01b81523360048201526024015b60405180910390fd5b60208701803590610ea490610e9f908a6133f6565b611ed1565b14610ee257610eb660208801886133f6565b60405163309afaf360e21b815263ffffffff909116600482015260208801356024820152604401610e81565b610ef187878787878787611f0d565b50505050505050565b600033610f08858285612074565b610f138585856120f3565b60019150505b9392505050565b600c546001600160a01b03163314610f4b57604051631ea2564f60e31b815260040160405180910390fd5b610f558282612152565b816001600160a01b03167f7333c4d498e1386177054f52d50ca759ef946eff3784f7f021387fd690508b9782604051610f9091815260200190565b60405180910390a25050565b610fa4612188565b81600003610fc557604051635e85ae7360e01b815260040160405180910390fd5b826001600160a01b03167fff67663330fcde57965a89e0eed2698c4f260f4f4dfa83e4d8a1c1db935fa2358360405161100091815260200190565b60405180910390a261101c6001600160a01b03821684846121b5565b505050565b611029612188565b6110338282612214565b5050565b6040805180820190915260008082526020820152600061106760408501356060860135610e1760208801886133f6565b9150506000806110778684612269565b909250905061109461108c60208801886133f6565b83838861238c565b9695505050505050565b6110a6612188565b6001600b60148282829054906101000a900463ffffffff166110c89190613631565b82546101009290920a63ffffffff818102199093169183160217909155600b54604051600160a01b90910490911681527fb370950b30fc033e7ca80e7d6d270eced4b12d84ebca86bb46ea42d44179ebcc915060200160405180910390a1565b61113061246d565b600b54600160c01b900460ff1661115a5760405163043fb77f60e11b815260040160405180910390fd5b8060000361117b57604051635e85ae7360e01b815260040160405180910390fd5b6111858282612497565b6040518181526001600160a01b0383169033907f5548c837ab068cf56a2c2479df0882a4922fd203edb7517321831d95078c5f629060200160405180910390a3600b546111dd906001600160a01b03163330846124cd565b6110336001600a55565b60036020908152600092835260408084209091529082529020805461120b9061359b565b80601f01602080910402602001604051908101604052809291908181526020018280546112379061359b565b80156112845780601f1061125957610100808354040283529160200191611284565b820191906000526020600020905b81548152906001019060200180831161126757829003601f168201915b505050505081565b61129461246d565b336000908152600d602090815260408083208151808301909252546001600160e01b038116808352600160e01b90910463ffffffff169282019290925291036112f057604051635e85ae7360e01b815260040160405180910390fd5b600b54602082015163ffffffff600160a01b90920482169116106113275760405163258e84af60e11b815260040160405180910390fd5b336000908152600d6020908152604080832092909255825182516001600160e01b0390911680825292516001600160a01b038616927f7084f5476618d8e60b11ef0d7d3f06914655adb8793e28ff7f018d4c76d505d5928290030190a2600b5461139b906001600160a01b031684836121b5565b50506113a76001600a55565b50565b6113b2612188565b600480546001600160a01b0319166001600160a01b0383169081179091556040519081527ff0be4f1e87349231d80c36b33f9e8639658eeaf474014dee15a3e6a4d4414197906020015b60405180910390a150565b61140f612188565b6114196000612506565b565b611423612188565b6001600160a01b03811661144a576040516309be64cd60e41b815260040160405180910390fd5b600c80546001600160a01b0319166001600160a01b0383169081179091556040519081527fdc3dba1d64dd67c0dc8b12621edd0c6ca4303a9073c3a8fcac38115e73d67b6b906020016113fc565b6114a061246d565b600b54600160c01b900460ff166114ca5760405163043fb77f60e11b815260040160405180910390fd5b806001600160e01b03166000036114f457604051635e85ae7360e01b815260040160405180910390fd5b336000908152600560205260409020546001600160e01b038216111561152d57604051631e9acf1760e31b815260040160405180910390fd5b61154033826001600160e01b0316612152565b336000908152600d6020526040908190205481518083019092526001600160e01b0316908061156f8484613655565b6001600160e01b039081168252600b805463ffffffff600160a01b918290048116602095860152336000818152600d8752604090819020885198909701518316600160e01b029790951696909617909455905491517f69214d191a9e2c11156aedc11f80105e29875ef3eacdde4b6e9f08bfe162dfdb936115f593889390041690613335565b60405180910390a2506113a76001600a55565b611610612188565b600b805460ff909216600160c81b0260ff60c81b19909216919091179055565b6001600160a01b03811630145b949350505050565b606060098054610c0c9061359b565b61165c61246d565b600c546001600160a01b0316331461168757604051631ea2564f60e31b815260040160405180910390fd5b806000036116a857604051635e85ae7360e01b815260040160405180910390fd5b6116c36116bd6000546001600160a01b031690565b82612497565b816001600160a01b03167f9f27a22fea017c09821db9e9e1700a69ddd6121050f29a783f8ca5f6876865f3826040516116fe91815260200190565b60405180910390a2600b546111dd906001600160a01b03168330846124cd565b611726612188565b600b8054821515600160c01b0260ff60c01b199091161790556040517f96adcf1e48ac546c8fe3676c903cc458907e1e045d4c27130254a0bf7d9366ce906113fc90831515815260200190565b600033610c9d8185856120f3565b611789612188565b6110336117968284613716565b612556565b63ffffffff8416600090815260036020908152604080832061ffff871684529091528120805460609291906117cf9061359b565b80601f01602080910402602001604051908101604052809291908181526020018280546117fb9061359b565b80156118485780601f1061181d57610100808354040283529160200191611848565b820191906000526020600020905b81548152906001019060200180831161182b57829003601f168201915b5050505050905080516000036118985783838080601f01602080910402602001604051908101604052809392919081815260200183838082843760009201919091525092945061163d9350505050565b60008390036118a857905061163d565b60028310611926576118ef84848080601f01602080910402602001604051908101604052809392919081815260200183838082843760009201919091525061265d92505050565b806118fd846002818861382b565b60405160200161190f93929190613855565b60405160208183030381529060405291505061163d565b8383604051639a6d49cd60e01b8152600401610e819291906138a6565b60005b81811015611a4c5736838383818110611961576119616138ba565b905060200281019061197391906138d0565b90506119a661198560208301836133f6565b602083013563ffffffff919091166000908152600160205260409020541490565b6119b05750611a44565b3063d045a0dc60c08301358360a08101356119cf6101008301836138f1565b6119e0610100890160e08a0161325d565b6119ee6101208a018a6138f1565b6040518963ffffffff1660e01b8152600401611a10979695949392919061394c565b6000604051808303818588803b158015611a2957600080fd5b505af1158015611a3d573d6000803e3d6000fd5b5050505050505b600101611946565b50336001600160a01b0316638e9e70996040518163ffffffff1660e01b8152600401600060405180830381865afa158015611a8b573d6000803e3d6000fd5b505050506040513d6000823e601f3d908101601f19168201604052611ab391908101906139d2565b604051638351eea760e01b8152600401610e819190612eb8565b611ad561246d565b600c546001600160a01b03163314611b0057604051631ea2564f60e31b815260040160405180910390fd5b806001600160e01b0316600003611b2a57604051635e85ae7360e01b815260040160405180910390fd5b611b3d30826001600160e01b0316612152565b6001600160a01b0382166000908152600d6020526040908190205481518083019092526001600160e01b03169080611b758484613655565b6001600160e01b039081168252600b805463ffffffff600160a01b9182900481166020958601526001600160a01b0389166000818152600d8752604090819020885198909701518316600160e01b029790951696909617909455905491517f69214d191a9e2c11156aedc11f80105e29875ef3eacdde4b6e9f08bfe162dfdb93611c0493889390041690613335565b60405180910390a2506110336001600a55565b600c546001600160a01b03163314611c4257604051631ea2564f60e31b815260040160405180910390fd5b611c4c8282612497565b816001600160a01b03167fffb73e7f272503f7f95a05a3a748beaef6216eb560391e2f075d54a5d5b5745682604051610f9091815260200190565b611c8f612e21565b6040805180820190915260008082526020820152611cae858585612689565b915091505b935093915050565b611cc3612188565b60405163ca5eb5e160e01b81526001600160a01b0382811660048301527f0000000000000000000000000000000000000000000000000000000000000000169063ca5eb5e190602401600060405180830381600087803b158015611d2657600080fd5b505af1158015611d3a573d6000803e3d6000fd5b5050505050565b333014611d615760405163029a949d60e31b815260040160405180910390fd5b610ef187878787878787610ee2565b611d78612188565b6001600160a01b038116611d9f576040516309be64cd60e41b815260040160405180910390fd5b600b80546001600160a01b0319166001600160a01b0392909216919091179055565b611dc9612188565b600280546001600160a01b0319166001600160a01b0383169081179091556040519081527fd48d879cef83a1c0bdda516f27b13ddb1b3f8bbac1c9e1511bb2a659c2427760906020016113fc565b611e1f612188565b6001600160a01b038116611e4957604051631e4fbdf760e01b815260006004820152602401610e81565b6113a781612506565b6000602082018035906001908390611e6a90866133f6565b63ffffffff1681526020810191909152604001600020541492915050565b61101c8383836001612784565b600080611ea185612859565b915081905083811015611cb3576040516371c4efed60e01b81526004810182905260248101859052604401610e81565b63ffffffff811660009081526001602052604081205480610ca35760405163f6ff4fb760e01b815263ffffffff84166004820152602401610e81565b6000611f1f611f1c8787612890565b90565b90506000611f4b82611f39611f348a8a6128a8565b6128cb565b611f4660208d018d6133f6565b612900565b90506028861115612012576000611f88611f6b60608c0160408d01613a3f565b611f7860208d018d6133f6565b84611f838c8c612928565b612973565b604051633e5ac80960e11b81529091506001600160a01b037f00000000000000000000000000000000000000000000000000000000000000001690637cb5901290611fde9086908d906000908790600401613a5c565b600060405180830381600087803b158015611ff857600080fd5b505af115801561200c573d6000803e3d6000fd5b50505050505b6001600160a01b038216887fefed6d3500546b29533b128a29e3a94d70788727f0507505ac12eaf2e578fd9c61204b60208d018d6133f6565b6040805163ffffffff9092168252602082018690520160405180910390a3505050505050505050565b6001600160a01b038381166000908152600660209081526040808320938616835292905220546000198110156120ed57818110156120de57604051637dc7a0d960e11b81526001600160a01b03841660048201526024810182905260448101839052606401610e81565b6120ed84848484036000612784565b50505050565b6001600160a01b03831661211d57604051634b637e8f60e11b815260006004820152602401610e81565b6001600160a01b0382166121475760405163ec442f0560e01b815260006004820152602401610e81565b61101c8383836129a5565b6001600160a01b03821661217c57604051634b637e8f60e11b815260006004820152602401610e81565b611033826000836129a5565b6000546001600160a01b031633146114195760405163118cdaa760e01b8152336004820152602401610e81565b6040516001600160a01b0383811660248301526044820183905261101c91859182169063a9059cbb906064015b604051602081830303815290604052915060e01b6020820180516001600160e01b038381831617835250505050612acf565b63ffffffff8216600081815260016020908152604091829020849055815192835282018390527f238399d427b947898edb290f5ff0f9109849b1c3ba196a42e35f00c50a54b98b910160405180910390a15050565b60608060006122c6856020013561227f86612b40565b61228c60a08901896138f1565b8080601f016020809104026020016040519081016040528093929190818152602001838380828437600092019190915250612b6c92505050565b90935090506000816122d95760016122dc565b60025b90506122fc6122ee60208801886133f6565b82610a6a60808a018a6138f1565b6004549093506001600160a01b031680156123825760405163043a78eb60e01b81526001600160a01b0382169063043a78eb9061233f9088908890600401613a8d565b602060405180830381865afa15801561235c573d6000803e3d6000fd5b505050506040513d601f19601f820116820180604052508101906123809190613ab2565b505b5050509250929050565b60408051808201909152600080825260208201527f00000000000000000000000000000000000000000000000000000000000000006001600160a01b031663ddc28c586040518060a001604052808863ffffffff1681526020016123ef89611ed1565b8152602001878152602001868152602001851515815250306040518363ffffffff1660e01b8152600401612424929190613acf565b6040805180830381865afa158015612440573d6000803e3d6000fd5b505050506040513d601f19601f820116820180604052508101906124649190613b78565b95945050505050565b6002600a540361249057604051633ee5aeb560e01b815260040160405180910390fd5b6002600a55565b6001600160a01b0382166124c15760405163ec442f0560e01b815260006004820152602401610e81565b611033600083836129a5565b6040516001600160a01b0384811660248301528381166044830152606482018390526120ed9186918216906323b872dd906084016121e2565b600080546001600160a01b038381166001600160a01b0319831681178455604051919092169283917f8be0079c531659141344cd1fd0a4f28419497f9722a3daafe3b4186f6b6457e09190a35050565b60005b815181101561262d57612588828281518110612577576125776138ba565b60200260200101516040015161265d565b81818151811061259a5761259a6138ba565b602002602001015160400151600360008484815181106125bc576125bc6138ba565b60200260200101516000015163ffffffff1663ffffffff16815260200190815260200160002060008484815181106125f6576125f66138ba565b60200260200101516020015161ffff1661ffff16815260200190815260200160002090816126249190613be4565b50600101612559565b507fbe4864a8e820971c0247f5992e2da559595f7bf076a21cb5928d443d2a13b674816040516113fc9190613ca3565b600281015161ffff81166003146110335781604051639a6d49cd60e01b8152600401610e819190612eb8565b612691612e21565b60408051808201909152600080825260208201526000806126c833604089013560608a01356126c360208c018c6133f6565b612be6565b915091506000806126d98984612269565b90925090506127056126ee60208b018b6133f6565b83836126ff368d90038d018d613d2e565b8b612c0c565b60408051808201909152858152602080820186905282519298509096503391907f85496b760a4b7f8d66384b9df21b381f5d1b1e79f229a47aaf4c232edc2fe59a90612753908d018d6133f6565b6040805163ffffffff909216825260208201899052810187905260600160405180910390a350505050935093915050565b6001600160a01b0384166127ae5760405163e602df0560e01b815260006004820152602401610e81565b6001600160a01b0383166127d857604051634a1406b160e11b815260006004820152602401610e81565b6001600160a01b03808516600090815260066020908152604080832093871683529290522082905580156120ed57826001600160a01b0316846001600160a01b03167f8c5be1e5ebec7d5bd14f71427d1e84f3dd0314c0f7b2291e5b200ac8c7c3b9258460405161284b91815260200190565b60405180910390a350505050565b60007f00000000000000000000000000000000000000000000000000000000000000006128868184613d60565b610ca39190613d82565b600061289f602082848661382b565b610f1991613d99565b60006128b860286020848661382b565b6128c191613db7565b60c01c9392505050565b6000610ca37f00000000000000000000000000000000000000000000000000000000000000006001600160401b038416613d82565b60006001600160a01b0384166129165761dead93505b6129208484612497565b509092915050565b6060612937826028818661382b565b8080601f016020809104026020016040519081016040528093929190818152602001838380828437600092019190915250929695505050505050565b60608484848460405160200161298c9493929190613de7565b6040516020818303038152906040529050949350505050565b6001600160a01b0383166129d05780600760008282546129c59190613e36565b90915550612a429050565b6001600160a01b03831660009081526005602052604090205481811015612a235760405163391434e360e21b81526001600160a01b03851660048201526024810182905260448101839052606401610e81565b6001600160a01b03841660009081526005602052604090209082900390555b6001600160a01b038216612a5e57600780548290039055612a7d565b6001600160a01b03821660009081526005602052604090208054820190555b816001600160a01b0316836001600160a01b03167fddf252ad1be2c89b69c2b068fc378daa952ba7f163c4a11628f55a4df523b3ef83604051612ac291815260200190565b60405180910390a3505050565b600080602060008451602086016000885af180612af2576040513d6000823e3d81fd5b50506000513d91508115612b0a578060011415612b17565b6001600160a01b0384163b155b156120ed57604051635274afe760e01b81526001600160a01b0385166004820152602401610e81565b6000610ca37f000000000000000000000000000000000000000000000000000000000000000083613d60565b8051606090151580612bb5578484604051602001612ba192919091825260c01b6001600160c01b031916602082015260280190565b604051602081830303815290604052612bdc565b84843385604051602001612bcc9493929190613e49565b6040516020818303038152906040525b9150935093915050565b600080612bf4858585611e95565b9092509050612c038683612152565b94509492505050565b612c14612e21565b6000612c238460000151612d17565b602085015190915015612c3d57612c3d8460200151612d3f565b7f00000000000000000000000000000000000000000000000000000000000000006001600160a01b0316632637a450826040518060a001604052808b63ffffffff168152602001612c8d8c611ed1565b81526020018a815260200189815260200160008960200151111515815250866040518463ffffffff1660e01b8152600401612cc9929190613acf565b60806040518083038185885af1158015612ce7573d6000803e3d6000fd5b50505050506040513d601f19601f82011682018060405250810190612d0c9190613e8c565b979650505050505050565b6000813414612d3b576040516304fb820960e51b8152346004820152602401610e81565b5090565b60007f00000000000000000000000000000000000000000000000000000000000000006001600160a01b031663e4fe1d946040518163ffffffff1660e01b8152600401602060405180830381865afa158015612d9f573d6000803e3d6000fd5b505050506040513d601f19601f82011682018060405250810190612dc391906135cf565b90506001600160a01b038116612dec576040516329b99a9560e11b815260040160405180910390fd5b6110336001600160a01b038216337f0000000000000000000000000000000000000000000000000000000000000000856124cd565b60405180606001604052806000801916815260200160006001600160401b03168152602001612e63604051806040016040528060008152602001600081525090565b905290565b60005b83811015612e83578181015183820152602001612e6b565b50506000910152565b60008151808452612ea4816020860160208601612e68565b601f01601f19169290920160200192915050565b602081526000610f196020830184612e8c565b6001600160a01b03811681146113a757600080fd5b60008060408385031215612ef357600080fd5b8235612efe81612ecb565b946020939093013593505050565b600060e08284031215612f1e57600080fd5b50919050565b600060208284031215612f3657600080fd5b81356001600160401b03811115612f4c57600080fd5b61163d84828501612f0c565b8351815260208085015190820152600060a08201604060a0604085015281865180845260c08601915060c08160051b8701019350602080890160005b83811015612fd35788870360bf19018552815180518852830151838801879052612fc087890182612e8c565b9750509382019390820190600101612f94565b5050875160608801525050506020850151608085015250905061163d565b600060608284031215612f1e57600080fd5b60008083601f84011261301557600080fd5b5081356001600160401b0381111561302c57600080fd5b60208301915083602082850101111561304457600080fd5b9250929050565b600080600080600080600060e0888a03121561306657600080fd5b6130708989612ff1565b96506060880135955060808801356001600160401b038082111561309357600080fd5b61309f8b838c01613003565b909750955060a08a013591506130b482612ecb565b90935060c089013590808211156130ca57600080fd5b506130d78a828b01613003565b989b979a50959850939692959293505050565b6000806000606084860312156130ff57600080fd5b833561310a81612ecb565b9250602084013561311a81612ecb565b929592945050506040919091013590565b60008060006060848603121561314057600080fd5b833561314b81612ecb565b925060208401359150604084013561316281612ecb565b809150509250925092565b803563ffffffff8116811461318157600080fd5b919050565b6000806040838503121561319957600080fd5b612efe8361316d565b80151581146113a757600080fd5b600080604083850312156131c357600080fd5b82356001600160401b038111156131d957600080fd5b6131e585828601612f0c565b92505060208301356131f6816131a2565b809150509250929050565b815181526020808301519082015260408101610ca3565b803561ffff8116811461318157600080fd5b6000806040838503121561323d57600080fd5b6132468361316d565b915061325460208401613218565b90509250929050565b60006020828403121561326f57600080fd5b8135610f1981612ecb565b80356001600160e01b038116811461318157600080fd5b6000602082840312156132a357600080fd5b610f198261327a565b6000602082840312156132be57600080fd5b813560ff81168114610f1957600080fd5b60008060008060a085870312156132e557600080fd5b6132ef8686612ff1565b935060608501356001600160401b0381111561330a57600080fd5b61331687828801613003565b909450925050608085013561332a81612ecb565b939692955090935050565b6001600160e01b0392909216825263ffffffff16602082015260400190565b60006020828403121561336657600080fd5b8135610f19816131a2565b60008083601f84011261338357600080fd5b5081356001600160401b0381111561339a57600080fd5b6020830191508360208260051b850101111561304457600080fd5b600080602083850312156133c857600080fd5b82356001600160401b038111156133de57600080fd5b6133ea85828601613371565b90969095509350505050565b60006020828403121561340857600080fd5b610f198261316d565b6000806000806060858703121561342757600080fd5b6134308561316d565b935061343e60208601613218565b925060408501356001600160401b0381111561345957600080fd5b61346587828801613003565b95989497509550505050565b6000806040838503121561348457600080fd5b823561348f81612ecb565b91506132546020840161327a565b600080600083850360808112156134b357600080fd5b84356001600160401b038111156134c957600080fd5b6134d587828801612f0c565b9450506040601f19820112156134ea57600080fd5b50602084019150606084013561316281612ecb565b600060c082019050835182526001600160401b036020850151166020830152604084015161353a604084018280518252602090810151910152565b5082516080830152602083015160a0830152610f19565b6000806040838503121561356457600080fd5b823561356f81612ecb565b915060208301356131f681612ecb565b60006060828403121561359157600080fd5b610f198383612ff1565b600181811c908216806135af57607f821691505b602082108103612f1e57634e487b7160e01b600052602260045260246000fd5b6000602082840312156135e157600080fd5b8151610f1981612ecb565b6000602082840312156135fe57600080fd5b5051919050565b634e487b7160e01b600052604160045260246000fd5b634e487b7160e01b600052601160045260246000fd5b63ffffffff81811683821601908082111561364e5761364e61361b565b5092915050565b6001600160e01b0381811683821601908082111561364e5761364e61361b565b604051606081016001600160401b038111828210171561369757613697613605565b60405290565b604080519081016001600160401b038111828210171561369757613697613605565b604051601f8201601f191681016001600160401b03811182821017156136e7576136e7613605565b604052919050565b60006001600160401b0382111561370857613708613605565b50601f01601f191660200190565b60006001600160401b038084111561373057613730613605565b8360051b60206137418183016136bf565b86815291850191818101903684111561375957600080fd5b865b8481101561381f578035868111156137735760008081fd5b880160603682900312156137875760008081fd5b61378f613675565b6137988261316d565b81526137a5868301613218565b86820152604080830135898111156137bd5760008081fd5b929092019136601f8401126137d25760008081fd5b82356137e56137e0826136ef565b6136bf565b81815236898387010111156137fa5760008081fd5b818986018a83013760009181018901919091529082015284525091830191830161375b565b50979650505050505050565b6000808585111561383b57600080fd5b8386111561384857600080fd5b5050820193919092039150565b60008451613867818460208901612e68565b8201838582376000930192835250909392505050565b81835281816020850137506000828201602090810191909152601f909101601f19169091010190565b60208152600061163d60208301848661387d565b634e487b7160e01b600052603260045260246000fd5b6000823561013e198336030181126138e757600080fd5b9190910192915050565b6000808335601e1984360301811261390857600080fd5b8301803591506001600160401b0382111561392257600080fd5b60200191503681900382131561304457600080fd5b6001600160401b03811681146113a757600080fd5b63ffffffff61395a8961316d565b168152602088013560208201526000604089013561397781613937565b6001600160401b03811660408401525087606083015260e060808301526139a260e08301878961387d565b6001600160a01b03861660a084015282810360c08401526139c481858761387d565b9a9950505050505050505050565b6000602082840312156139e457600080fd5b81516001600160401b038111156139fa57600080fd5b8201601f81018413613a0b57600080fd5b8051613a196137e0826136ef565b818152856020838501011115613a2e57600080fd5b612464826020830160208601612e68565b600060208284031215613a5157600080fd5b8135610f1981613937565b60018060a01b038516815283602082015261ffff831660408201526080606082015260006110946080830184612e8c565b604081526000613aa06040830185612e8c565b82810360208401526124648185612e8c565b600060208284031215613ac457600080fd5b8151610f19816131a2565b6040815263ffffffff8351166040820152602083015160608201526000604084015160a06080840152613b0560e0840182612e8c565b90506060850151603f198483030160a0850152613b228282612e8c565b60809690960151151560c08501525050506001600160a01b039190911660209091015290565b600060408284031215613b5a57600080fd5b613b6261369d565b9050815181526020820151602082015292915050565b600060408284031215613b8a57600080fd5b610f198383613b48565b601f82111561101c576000816000526020600020601f850160051c81016020861015613bbd5750805b601f850160051c820191505b81811015613bdc57828155600101613bc9565b505050505050565b81516001600160401b03811115613bfd57613bfd613605565b613c1181613c0b845461359b565b84613b94565b602080601f831160018114613c465760008415613c2e5750858301515b600019600386901b1c1916600185901b178555613bdc565b600085815260208120601f198616915b82811015613c7557888601518255948401946001909101908401613c56565b5085821015613c935787850151600019600388901b60f8161c191681555b5050505050600190811b01905550565b600060208083018184528085518083526040925060408601915060408160051b87010184880160005b83811015613d2057888303603f190185528151805163ffffffff1684528781015161ffff16888501528601516060878501819052613d0c81860183612e8c565b968901969450505090860190600101613ccc565b509098975050505050505050565b600060408284031215613d4057600080fd5b613d4861369d565b82358152602083013560208201528091505092915050565b600082613d7d57634e487b7160e01b600052601260045260246000fd5b500490565b8082028115828204841417610ca357610ca361361b565b80356020831015610ca357600019602084900360031b1b1692915050565b6001600160c01b03198135818116916008851015613ddf5780818660080360031b1b83161692505b505092915050565b6001600160401b0360c01b8560c01b16815263ffffffff60e01b8460e01b16600882015282600c82015260008251613e2681602c850160208701612e68565b91909101602c0195945050505050565b80820180821115610ca357610ca361361b565b8481526001600160401b0360c01b8460c01b16602082015282602882015260008251613e7c816048850160208701612e68565b9190910160480195945050505050565b600060808284031215613e9e57600080fd5b613ea6613675565b825181526020830151613eb881613937565b6020820152613eca8460408501613b48565b6040820152939250505056fea26469706673582212203527f0055556ca7c51018fef1ff2bf015f72811a4032a6688a7a4d61958b427364736f6c63430008160033",
  "linkReferences": {},
  "deployedLinkReferences": {}
}